:080000000C9461000C94000057
:100008000C9400000C9400000C9492000C948E0048
:100018000C9400000C9400000C9400000C94000058
:100028000C9400000C9400000C9400000C94000048
:100038000C9400000C9400000C9400000C94000038
:100048000C9400000C9400000C9400001027E803A6
:1000580064000A0001000010000110000100000007
:10006800737065656420737465703A2B256400733A
:100078007065656420737465703A2D25640073702B
:1000880065656420737465703A2564000100256411
:10009800000080C001002D4E414E00494E46000030
:1000A80002000400660001006C01940002006E0169
:1000B8009A00010075019C000000F894EE27ECBB43
:1000C800F1E0FBBFEBBFE5BF8DE0A2E0BB27ED93FE
:1000D8008A95E9F780E094E0A0E6ED930197E9F7C7
:1000E800E8EAF0E085919591009761F0A591B591C6
:1000F80005901590BF01F00105900D920197E1F769
:10010800FB01F0CFEFE5EDBFE4E0EEBFC0E6D1E0E4
:100118000C94EE000E942D04DDD04EC00E942D04E8
:100128006497E1E8E4BDEDE2F0E0E0936001F0936C
:100138006101A8ECB0E00E94C8040E943B041F972C
:100148003CF492D00E944004E8E6F0E00E944404A7
:100158000E943B0450973CF0A2D00E944004E7E77D
:10016800F0E00E9444040E943B041F97E9F4E0E099
:10017800E0936001E09361010E944004E6E8F0E04A
:10018800FA93EA93E0916001F09161010E945A04A8
:100198000E9404020E946304A8E8B3E10E94C80414
:1001A800A2E6B1E00E946604E0E0EA93A0E00E94C3
:1001B800F3010E9463046496E991EFBFF991E99114
:1001C800B991A9919991899179916991F990199029
:1001D80009901895E0E0EABBEBBBEFEFE7BBE0E086
:1001E800E8BBEFEFE4BBE0E0E5BBEFEFE1BBE0E04D
:1001F800E2BBE2E6E3BFE0E0E2BFEFBDE2ECEEBD6A
:10020800E0E0EDBDECBDE7BDE6BDEBBDEABDE9BD97
:10021800E8BDE2BDE2E0E5BDE1E8E4BDE0E0E3BD64
:10022800E0E6E9BFA0E10E944302789402D0FECF45
:10023800FFCF1A930A9309B31127F8010E941906F0
:100248000E943805A4EAB0E78DE79FE30E94BB054A
:10025800A0E0B0E080E09FE30E946B050E94FF04ED
:10026800ECBF0991199108950E946C0419F40E9439
:10027800730414C0E230A0E0FA0719F40E9479046C
:100288000DC0E330A0E0FA0719F40E947F0406C00D
:10029800E430A0E0FA0711F40E94850408950E9452
:1002A8006C0419F40E947F0414C0E230A0E0FA073D
:1002B80019F40E9479040DC0E330A0E0FA0719F49C
:1002C8000E94730406C0E430A0E0FA0711F40E940B
:1002D80085040895649766B4772487B49924E091D7
:1002E8006A01F0916B01309751F4F82DE0E0E629AE
:1002F800F7295F01E0E0E0936C01E0936D01E09184
:100308006C01F0916D01309751F4F82DE0E0E62989
:10031800F7296F01E0E0E0936A01E0936B01A09197
:100328006A01B0916B01109731F0A0916C01B09106
:100338006D01109709F413C0D601AA19BB09E8EE9C
:10034800F3E00E942606E0936801F0936901A2E3B6
:10035800B0E00E942606E0936401F0936501A09244
:100368006401B0926501E0E0EA93A1E038D00E9410
:100378004004E6E9F0E0FA93EA93E0916401F09131
:1003880065010E945A040E946304E0916401F0919F
:100398006501E0936601F09367010C94DE03AA936C
:1003A800E5B3EF70AE2FE881E07FEA2BE5BB8DE087
:1003B8008A95F1F7AA9A8DE08A95F1F7AA988DE0C7
:1003C8008A95F1F789C0AA93A881E9DFE881E295C7
:1003D800E883A881E4DF85E88A95F1F77DC0AA93D0
:1003E800E881F0E0E259FE4FE081A981AE0FEBDF32
:1003F800E981E0937201E881E09373012296089500
:10040800A2E00E948E04ACE0DEDFA1E00E948E0430
:10041800E0E0E0937301E09372010895AA93A88144
:10042800AA3031F0E0917401A0917201AE1760F02A
:10043800E0E0EA93A0917301AF5FA0937301CFDF6F
:10044800A881AA3009F448C0E0917201EF5FE093F7
:100458007201A89AA881B7DFA8983EC0BA93AA9358
:100468001A93A981BA81ED91A983BA831E2FE0302E
:1004780019F0A12FD3DFF5CF188123960895AA93F9
:10048800E4B3E06FE4BBA29AA09AA19AAA98A898AC
:10049800A998E881E0937401E058E0937001E8813D
:1004A800E054E0937101A4E1B0E00E94C8040E9406
:1004B80094040E9494040E949404A0E270DF88ECE3
:1004C80090E00197F1F7A8E27EDFA4E07CDFA5E8E1
:1004D8007ADFA6E078DF94DF21960895BA93AA938D
:1004E8001A930A93AA81BB8112960E943906309703
:1004F80029F1AA81BB8114960E9439068F01309791
:1005080061F00230E0E01E0780F0F80131978F01BA
:10051800AA81BB811496ED93FC93AA81BB811296A4
:100528000E9466043197AC81A083AA81BB810E9496
:100538003906FF2312F00E94660406C0AA81BB8117
:10054800EFEFFFEFED93FC9319810881259608954D
:10055800BA93AA9326970E94460610E0AC85BD85FB
:10056800E0E0F0E0ED93FC93EA89FB893196EA8BB1
:10057800FB8B3197E4912E2FE03009F415C1E12F60
:10058800E03039F4253211F411E002C00E949C04D5
:100598000AC1E130A9F4253219F40E949C0402C171
:1005A80012E040E000E02D3211F401E0FCC02B32F3
:1005B80011F44BE2F8C0203211F440E2F4C002C05A
:1005C800E23039F450E013E0203311F40068EBC056
:1005D80003C0E33009F0E7C0203310F02A3308F0F5
:1005E80007C0AAE05A9F502DE22FE0535E0FDBC0F0
:1005F800E22FE33649F40E94A304E889F989A4812B
:10060800AA930E94A904CEC0E33741F40E94A30430
:100618000E94AF040E9414041E2F0AC0E03761F440
:100628000E94A3040E94AF040E9420041E2F0860A9
:1006380002600F7730E034C0E43611F0E93611F487
:10064800046002C0E53731F4E4E5F0E0EE83FF83AF
:1006580015E00CC0E83511F4086003C0E83709F06C
:10066800A1C0EEE5F0E0EE83FF8314E002FF14C0C2
:100678000E94A3040E94B904AB85AA233AF4EA8530
:10068800FB850E940D06EA87FB874DE2403011F09A
:100698001F5F01C00B7F04C00E94A3040E94B9041D
:1006A80000FD11C0151778F407FF08C002FF04C049
:1006B8000B7F242F115001C020E301C020E20E94CB
:1006C8009C045150EFCF312F01FF17C03030A1F0FB
:1006D80003FF06C0EE81FF812591EE83FF8305C0ED
:1006E800AE81BF812D91AE83BF830E949C045030A0
:1006F80009F051503150EACF4BC020E3EE81FF8121
:100708000E943D06E887F987EE81FF813296EE83E5
:10071800FF83E885F985AA85BB85AE17BF0750F02A
:100728002F5FA885B985EA85FB85EA1BFB0BEA875D
:10073800FB87EFCF2A3328F003FF02C0295F01C0EF
:10074800295D04FD1AC0213320F4A885B9851197C5
:1007580009F409C0531710F000FF01C013C020E2CC
:1007680007FF0BC020E3006102FF07C00B7F4A931D
:100778000E94A904503009F051500E949C04503046
:1007880009F051503150A885B985129708F0B5CFB6
:1007980000FF08C0503031F05150E0E2EA930E9467
:1007A800A904F8CF10E0E0CEAC85BD850E943906DB
:1007B8000E944D0664960895FF92F82E26970E948F
:1007C80048060E94C104309719F4EFEFFFEF23C0E9
:1007D800DE0116960E9409068D010E94C104EE836F
:1007E800FF83E0E0E887E987DE011A960E940906A0
:1007F8000E943906FA93EA931A930A93E2E7F2E021
:10080800FA93EA93DE011A96A3DE9F01AE81BF81B7
:10081800E0E0EC93F9010E944F062A96FF900895B4
:10082800BA93AA93A991B991EE27FF276D916623F0
:1008380011F03196FBCF0895BA93AA93AA27BB2744
:10084800E991F9910590002011F01196FBCFFD0177
:1008580008950A921A92FA926A937A938A939A93CB
:10086800AA93BA93EA93FA93EFB7EA930895A091FB
:100878006201B09163010895FE01FA93EA93089525
:10088800FA93EA93E0916001F09161010E941906E0
:100898000E94410684E00E94E0032896A2E6B1E0A7
:1008A800ED91FD913196FE93EE9308950E941906FD
:1008B8000E94410684E00E94E00328960895DE0124
:1008C8000C943202ED91FD913196FE93EE930895CA
:1008D800F20131962F01E130A0E0FA070895E0E334
:1008E800E8BBA4E1B0E00C94C804E0E6E8BBA4E1EE
:1008F800B0E00C94C804E0ECE8BBA4E1B0E00C94D0
:10090800C804E0E9E8BBA4E1B0E00E94C8044424BC
:10091800552408950E94E701A3E0B0E00C94C804B0
:10092800A0E30E94D30188EC90E00197F1F70895C5
:100938002A93AD85BE85EF85F88909950895E889DC
:10094800F9893497E88BF98B0895AD85BE85EF85D5
:10095800F88909950895A889B98914960E943906D5
:10096800EE83FF83AE81BF810895A889B989149663
:100978000E943906EA87FB870895DE011C960E94CB
:1009880009060E9439060895109639F080ED97E01F
:100998000197F1F7A8951197C9F70895552342F4DF
:1009A800503811F4E0FF04C03196691F791F6BF0CD
:1009B80050E8572711F45F93C8C05F3F31F0660FC6
:1009C800000C57956795752F08955F9300200AF0DE
:1009D800C8C0C1C050E8192E1522880F991F952745
:1009E800550F879550E8072E0522660F771F752744
:1009F800550F67950895689401C0E8945F93F2DFF6
:100A0800703818F07F3F08F4A0C056E1571BAAF4CD
:100A1800519558300EF4593030F0EFEFFFEF6FEF8B
:100A28007FE777F91AC077275523B9F0EE0FFF1F34
:100A3800661F771F5A95D1F710C07727583028F0CE
:100A4800EF2FF62F672F5850F9CF552331F07695B1
:100A58006795F795E7955A95D1F700200AF4DDD008
:100A68005F910895689401C0E894309760407040A1
:100A7800B1F0002426F0772312F40094CED0172E7C
:100A88007EE1112032F07A95EE0FFF1F661F111CD0
:100A9800F9CFEF2FF62F612D5F938ADF5F910895CD
:100AA8004F93AF01FD01DA01AB01BC01CA01402D32
:100AB800012C142E4F910895EA0FFB1F681F08950B
:100AC800E095F0956095EF5FFF4F6F4F08955F9346
:100AD80081DF903839F1703821F1572F591B2BF1EC
:100AE80012F4DEDFFACF583118F0AA27BB2788277F
:100AF800583028F0AB2FB82F88275850F9CF5523F6
:100B080029F08695B795A7955A95D9F7502D51256F
:100B180072F0D2DF38F46795F795E795739513F47B
:100B280020C0BEDF45DF5F910895D8F7FBCFEA1BF1
:100B3800FB0B680B51F010F40094C2DF662392F3AC
:100B4800EE0FFF1F661F7A95CBF7EE27FF27662764
:100B580077275F910895EFEFFFEF6FE77FEF5F91E2
:100B68000895EFEFFFEF6FE77FE75F9108955F93D9
:100B780031DF703851F3903841F301240894791F1C
:100B880023F41CF300203AF3ECCF0F921F932F931A
:100B98003F934F93112722279927689FA0018F9F82
:100BA800302D410D591F6B9F300D411D591F8E9FD0
:100BB80027D0BF9F25D06A9F23D0BE9F1DD0AF9F4F
:100BC8001BD0AE9F110D291F391F491F591FE32F35
:100BD800F42F652F522F4F913F912F911F910F9016
:100BE80066232AF0550FEE1FFF1F661F02C073957C
:100BF8004BF2D4DE5F910895100D211D391F02C0FC
:100C0800200D311D491F591F08950024AF0DB01D37
:100C18000895F195E195F0400895F09560957095E7
:100C2800E195FF4F6F4F7F4F08956F2F660F660B4B
:100C3800762F0895FA9FF02DEB9FF00DEA9FE02D97
:100C4800F10D089504D0F6DF0EF4E3DF0895E8947B
:100C5800F7FF02C0DEDF6894B7FF06C0A095B09525
:100C6800119600F8039400FA0895ED91FC911197FC
:100C780008950590F491E02D08957A936A93FA9374
:100C8800EA9308955A934A933A932A931A930A93A4
:100C980008955D814C813B812A81198108810895DD
:00000001FF
