:080000000C9433000C94000085
:100008000C9400000C9400000C9400000C94000068
:100018000C9400000C9400000C9400000C94000058
:100028000C9400000C9400000C9400000C94000048
:100038000C9400000C9400000C9400000C94000038
:100048000C9400000C9400000C9400003F065B4FD9
:10005800666D7D077F6F0A00600154000000F89408
:10006800EE27ECBBF1E0FBBFEBBFE5BF8DE0A2E004
:10007800BB27ED938A95E9F780E094E0A0E6ED933D
:100088000197E9F7EEE5F0E085919591009761F029
:10009800A591B59105901590BF01F00105900D92BD
:1000A8000197E1F7FB01F0CFEFE5EDBFE4E0EEBF2C
:1000B800C0E6D1E00C946000E0E0EABBEBBBEFEFF8
:1000C800E7BBE0E0E8BBEFEFE4BBE0E0E5BBEFE077
:1000D800E1BBE2BB05D01ED042D044D05DD0FFCFFB
:1000E8001A930A9304E010E00024001601067CF439
:1000F800E0E0E8BBA4EFB1E00E947F01EFEFE8BBCE
:10010800A4EFB1E00E947F0101501040EDCFE0E084
:10011800E8BB3FC01A930A9306E010E000240016DB
:100128000106E4F4BCD0C09ABAD0C098C19AB7D03E
:10013800C198C29AB4D0C298C39AB1D0C398C49A8D
:10014800AED0C498C59AABD0C598C69AA8D0C69860
:10015800C79AA5D0C79801501040E0CF1AC0E9B39C
:10016800E8BB08951A930A9309E010E011235AF0A6
:10017800ACEBB2E00E947F0190989198929893D04E
:1001880001501040F3CFACEBB2E00E947F01EFE0EA
:10019800E2BB09911991089549B25524F201AAE0E8
:1001A800B0E00E9495012F0106D0F20132972F018D
:1001B800D20134D0F9CF849903C07DD04E1A5F0A9A
:1001C800859906C07ED083D076D0E60FF71F2F0121
:1001D80086990DC0D201E8EEF3E00E94B20177D013
:1001E80070D06E0F7F1F67D0E60FF71F2F0187991A
:1001F80014C0D201E0E1F7E20E94B20168D0D20156
:10020800E8EEF3E00E94B2016E0F7F1F5AD06E0F26
:100218007F1F51D0E60FF71F2F010895BA93AA93B5
:1002280022970E94CE0159D00E94B2018F0155D069
:1002380059D00E94B2019F0150D054D00E94B201FF
:10024800AF014BD04FD00E94B201EE83FF8345D05F
:100258000E94AD01E887F9879098EE81FF81E05A06
:10026800FE4FE081E5BB43D0909A9198A0E6B1E0BB
:10027800A40FB51FEC91E5BB3AD0919A9298A0E6ED
:10028800B1E0A20FB31FEC91E5BBAF9A30D0929AC0
:100298000AD02DD0939A0E94D5012A960895A2E3F8
:1002A800B0E00C947F019398A0E6B1E0A00FB11FD5
:1002B800EC91E5BB0895D201EAE0F0E00E94B201BA
:1002C8000895D201E4E6F0E00E94B2010895DF014A
:1002D800F201EA1BFB0BBF010895A885B985EAE086
:1002E800F0E008950E94AD01E887F987F6CFA4E110
:1002F800B0E00C947F01109639F080ED97E00197FB
:10030800F1F7A8951197C9F70895F195E195F0408F
:100318000895FA9FF02DEB9FF00DEA9FE02DF10D67
:1003280008952AD0F6DF0EF4F0DF08950024112492
:1003380090E1AA0FBB1F001C111C0E1A1F0A18F40B
:100348000E0E1F1E01C0A1609A9599F7FD01D001FC
:10035800089512D0EBDF0EF4D8DF0895E894B7FFC4
:1003680004C0A095B09511966894F7FDCEDFDEDF46
:10037800FD010EF4CADF0895E894F7FF02C0C5DF57
:100388006894B7FF06C0A095B095119600F803943D
:1003980000FA08955A934A933A932A931A930A9320
:1003A80008955D814C813B812A81198108810895D6
:00000001FF
