:040000000C94B900A3
:100004000C9400000C94E6000C9400000C94000086
:100014000C9400000C9400000C9400000C9400005C
:100024000C9400000C9400000C9400000C9400004C
:100034000C9400000C9400000C9400000C9400003C
:100044000C9400000C9400000C9400000C9400002C
:100054001027E80364000A000100001000011000EA
:100064000100303132333435363738394142434474
:100074004546416D697272657A61486F737365694B
:100084006E690A2020202039383230333633005745
:10009400656C636F6D6520746F20746865204D69AD
:1000A40063726F70726F636573736F72206C6162D9
:1000B40020636C617373657320696E204973666194
:1000C40068616E20556E6976657273697479206F04
:1000D4006620546563686E6F6C6F67792E202020EC
:1000E400202020202020202020202020202020200C
:1000F4002020200053706565643A3F3F28302D3539
:100104003072290045450054696D653A3F3F2830F7
:100114002D3939732900573A3F3F28302D39394B4F
:1001240067290054656D703A3F3F2832302D3830CE
:100134004329000080C001002D4E414E00494E4627
:10014400000010006C016600030060010801030058
:100154006301080103006601080103006901080145
:1001640002007C013801010080013A010000F8948A
:10017400EE27ECBBF1E0FBBFEBBFE5BF8DE0A2E0F7
:10018400BB27ED938A95E9F780E094E0A0E6ED9330
:100194000197E9F7E6E4F1E085919591009761F024
:1001A400A591B59105901590BF01F00105900D92B0
:1001B4000197E1F7FB01F0CFEFE5EDBFE4E0EEBF1F
:1001C400C0E6D1E00C94E7001895EFEFEABBE0E05D
:1001D400EBBBE0EFE7BBEFEFE8BBE1E0E4BBE0E063
:1001E400E5BBE1BBE2BBA0E10E9424055DD0A4EF26
:1001F400B1E00E94B20768D1A4EFB1E00E94B20757
:100204000ED2A4EFB1E00E94B207A8D2FFCFFFCF75
:100214002497E0E1E883E0E2E983E0E4EA83E0E8CC
:10022400EB830E94CC0734E600E010E00430E0E009
:100234001E07ACF5DE011696A00FB11FEC91E8BBCA
:1002440044E150E0AAE0B0E00E94B207B09B02C0D3
:1002540040E050E0B19B02C041E050E0B29B02C0DC
:1002640042E050E0B39B02C043E050E0E4E1F0E040
:10027400E417F50779F0E02FEE0FEE0FE40F3E2FB1
:10028400E0EFE8BBB099FECFB199FECFB299FECFB3
:10029400B399FECFE0EFE8BB0F5F1F4FC7CFE32F4B
:1002A4000E94D3072A9608956B97E8EEE883E3E06B
:1002B400E983E0E0EA83EB83EC830E94CC0730E03F
:1002C40020E040E050E000E010E00230E0E01E07F3
:1002D4000CF052C00E94EC04A9E60E94FE04A8ECB3
:1002E400B0E00E94B207AEE60E94FE04A8ECB0E0C3
:1002F4000E94B207A9E60E94FE04A8ECB0E00E94A6
:10030400B207A4E70E94FE04A8ECB0E00E94B20782
:10031400A9E60E94FE04A8ECB0E00E94B207A1E6A0
:100324000E94FE04A8ECB0E00E94B207A9E60E9475
:10033400FE04A8ECB0E00E94B207ACE60E94FE0402
:10034400A8ECB0E00E94B207AEE20E94FE04ACE268
:10035400B1E00E94B207AEE20E94FE04ACE2B1E05A
:100364000E94B207AEE20E94FE04ACE2B1E00E9439
:10037400B2070F5F1F4FA9CFA4EFB1E00E94B207ED
:100384000E94EC04FE013D96FA93EA93E8EFF0E054
:10039400FA93EA9380E00E9412072496DE011D96E8
:1003A4000E941305042E052AF1F432DFE887A8859C
:1003B400A13110F4A03008F416C0E885F0E0E45947
:1003C400FE4F3081E6E0EA93A0E00E94DF04A4E15E
:1003D400B0E00E94B207ADB7BEB73F930E941305C9
:1003E4003F9141E050E0A4E1B0E00E94B207E1E0B7
:1003F400F0E0E417F50701F50BDFE887A885A131E4
:1004040010F4A03008F418C0E885F0E0E459FE4F79
:100414002081E7E0EA93A0E00E94DF04A4E1B0E0D9
:100424000E94B207ADB7BEB72F930E9413052F9158
:10043400E1E0F0E0E987FA873B87FE013C96208300
:10044400DE011B960E944E07EE83FF83AE81BF81BF
:10045400D3973CF4AF81AA2322F0A985BA851197DA
:1004640009F001C02DC0AE81BF81D3971CF4AF81C8
:10047400AA2322F4A985BA85119709F020C030E097
:1004840020E0FE013B96FA93EA93E0E0F0E0FA9371
:10049400EA9380E00E941207249640E050E0E0E0F6
:1004A400E987EA87E8EEF3E0EE83FF83E6E0EA9388
:1004B400A0E00E94DF04A0E6B1E00E94130572CF21
:1004C4000E94D307A19608956997E8EEE883E3E0D4
:1004D400E9830E94CC0710E000E020E030E040E037
:1004E40050E00E94EC04FE013B96FA93EA93EBE0A1
:1004F400F1E0FA93EA9380E00E9412072496DE0169
:100504001B960E941305022E032AF1F481DEE8876C
:10051400A885A13110F4A03008F416C0E885F0E0F5
:10052400E459FE4F1081E5E0EA93A0E00E94DF0465
:10053400A4E1B0E00E94B207ADB7BEB71F930E941A
:1005440013051F9121E030E0E1E0F0E0E217F3074A
:10055400E1F45EDEE887A885A13110F4A03008F448
:1005640014C0E885F0E0E459FE4F0081E6E0EA9328
:10057400A0E00E94DF04ADB7BEB70F930E9413053D
:100584000F9141E050E022E030E01987FE013A96F5
:100594000083DE0119960E944E07EE83FF83AE812D
:1005A400BF81A436E0E0BE0744F4AF81AA232AF059
:1005B400E1E0F0E0E417F50709F001C02FC0AE81D7
:1005C400BF81A436E0E0BE071CF4AF81AA232AF45D
:1005D400E1E0F0E0E417F50709F01FC010E000E0E7
:1005E400FE013996FA93EA93E0E0F0E0FA93EA9395
:1005F40080E00E941207249620E030E040E050E0C2
:10060400E8EEF3E0EE83FF83E6E0EA93A0E00E94E5
:10061400DF04A3E6B1E00E94130575CF9BC0699780
:10062400E8EEE883E3E0E9830E94CC0710E000E011
:1006340020E030E040E050E00E94EC04FE013B96F4
:10064400FA93EA93EAE1F1E0FA93EA9380E00E94F4
:1006540012072496DE011B960E941305022E032A1C
:10066400E9F4A4E1B0E00E94B207D2DDE887A885EE
:10067400A13110F4A03008F411C0E885F0E0E45989
:10068400FE4F1081E2E0EA93A0E097D1ADB7BEB788
:100694001F930E9413051F9121E030E0E1E0F0E098
:1006A400E217F307C1F4B4DDE887A885A13110F49B
:1006B400A03008F410C0E885F0E0E459FE4F008152
:1006C400E3E0EA93A0E079D1ADB7BEB70F93A9D127
:1006D4000F9141E050E01987FE013A960083DE0154
:1006E40019960E944E07EE83FF83AE81BF81A43624
:1006F400E0E0BE0744F4AF81AA232AF0E1E0F0E091
:10070400E417F50709F005C020E030E040E050E0D0
:1007140021C0AE81BF81A436E0E0BE071CF4AF81E6
:10072400AA232AF4E1E0F0E0E417F50709F011C088
:1007340010E000E020E030E040E050E0E8EEF3E0DC
:10074400EE83FF83E2E0EA93A0E037D1A6E6B1E0CE
:1007540068D184CF0E94D3076F960895A597E8EED9
:10076400EA83E3E0EB830E94CC0710E000E020E0A2
:1007740030E040E050E02ED1FE013D96FA93EA933A
:10078400E7E2F1E0FA93EA9380E00E9412072496EC
:10079400DE011D9646D1A4E1B0E00E94B207022E0C
:1007A400032A21F5A4E1B0E00E94B20731DDEA8713
:1007B400AA85A13110F4A03008F418C0EA85F0E04D
:1007C400E459FE4F1081A4E1B0E00E94B207E5E0D5
:1007D400EA93A0E0F2D0A4E1B0E00E94B207ADB782
:1007E400BEB71F931ED11F9121E030E0A4E1B0E019
:1007F4000E94B207E1E0F0E0E217F30701F508DD3B
:10080400EA87AA85A13110F4A03008F418C0EA855B
:10081400F0E0E459FE4F0081A4E1B0E00E94B20789
:10082400E6E0EA93A0E0C9D0A4E1B0E00E94B207F8
:10083400ADB7BEB70F93F5D00F9141E050E01B87E1
:10084400FE013C960083DE011B960E944E07E8875A
:10085400F987A4E1B0E00E94B207A885B985A13563
:10086400E0E0BE073CF454972CF0E1E0F0E0E4173C
:10087400F50709F005C020E030E040E050E024C076
:10088400A885B985A135E0E0BE0714F454972CF48B
:10089400E1E0F0E0E417F50709F015C010E000E02E
:1008A40020E030E040E050E0E8EEF3E0E887F9874C
:1008B400E5E0EA93A0E081D0A9E6B1E0B2D0A4E1FA
:1008C400B0E00E94B20767CFA4EFB1E00E94B20784
:1008D400E0E0EE83EF83AE81BF8112970CF049C054
:1008E40079D0A3E489D0A8ECB0E00E94B207AFE6C7
:1008F40083D0A8ECB0E00E94B207ADE67DD0A8ECAE
:10090400B0E00E94B207A0E777D0A8ECB0E00E9464
:10091400B207ACE671D0A8ECB0E00E94B207A5E63D
:100924006BD0A8ECB0E00E94B207A4E765D0A8ECB5
:10093400B0E00E94B207A5E65FD0A8ECB0E00E9448
:10094400B207AEE259D0ACE2B1E00E94B207AEE227
:1009540053D0ACE2B1E00E94B207AEE24DD0ACE2BB
:10096400B1E00E94B207EE81FF813196EE83FF83EE
:10097400B2CF0E94D307AB960895AA93EBB3EF705E
:10098400AE2FE881E07FEA2BEBBB8DE08A95F1F78F
:10099400DA9A8DE08A95F1F7DA988DE08A95F1F785
:1009A40089C0AA93A881E9DFE881E295E883A88158
:1009B400E4DF85E88A95F1F77DC0AA93E881F0E049
:1009C400E458FE4FE081A981AE0FEBDF59804880E7
:1009D40022960895A2E0E5DFA3E0B0E00E94B2070A
:1009E400ACE0DFDFA1E0DDDFA3E0B0E00E94B2070E
:1009F400E0E04E2E5E2E0895AA93A881AA3011F04D
:100A0400571448F0E0E0EA934394A42DD6DFA8817C
:100A1400AA3009F44FC05394D89AA881C2DFD89859
:100A240049C0BA93AA931A93A981BA81ED91A98373
:100A3400BA831E2FE03019F0A12FDEDFF5CF188125
:100A440023960895AA93EAB3E06FEABBD29AD09AA8
:100A5400D19ADA98D898D9987880E881E058E093C8
:100A64007E01E881E054E0937F01A4E1B0E00E94BC
:100A7400B207A0E382DF88EC90E00197F1F7A0E3EE
:100A84007CDF88EC90E00197F1F7A0E376DF88EC57
:100A940090E00197F1F7A0E270DF88EC90E0019715
:100AA400F1F7A8E27EDFA4E07CDFA5E87ADFA6E028
:100AB40078DF90DF21960895BA93AA931A930A9344
:100AC400AA81BB8112960E94C407309759F1AA816A
:100AD400BB8114960E94C4078F01309761F00230E5
:100AE400E0E01E0798F0F80131978F01AA81BB81DD
:100AF4001496ED93FC93AA81BB811296ED91FD911E
:100B04003196FE93EE933197AC81A083AA81BB8189
:100B14000E94C407FF232AF0ED91FD913196FE93C4
:100B2400EE9306C0AA81BB81EFEFFFEFED93FC9338
:100B34001981088125960895BA93AA9326970E944D
:100B4400CC0710E0AC85BD85E0E0F0E0ED93FC93CC
:100B5400EA89FB893196EA8BFB8B3197E4912E2F3E
:100B6400E03009F455C1E12FE03059F4253211F495
:100B740011E006C02A93AD85BE85EF85F8890995F5
:100B840046C1E130C9F4253239F42A93AD85BE85D6
:100B9400EF85F88909953AC112E040E000E02D3272
:100BA40011F401E034C12B3211F44BE230C1203294
:100BB40011F440E22CC102C0E23039F450E013E0F9
:100BC400203311F4006823C103C0E33009F01FC1CE
:100BD400203310F02A3308F007C0AAE05A9F502DA2
:100BE400E22FE0535E0F13C1E22FE33669F4E88984
:100BF400F9893497E88BF98BA481AA93AD85BE85D6
:100C0400EF85F889099502C1E33791F4E889F989F8
:100C14003497E88BF98BA889B98914960E94C40784
:100C2400EE83FF83AE81BF810E9485071E2F14C00F
:100C3400E037B1F4E889F9893497E88BF98BA8890E
:100C4400B98914960E94C407EE83FF83AE81BF81E5
:100C54000E9491071E2F086002600F7730E042C0A7
:100C6400E43611F0E93611F4046002C0E53731F4DA
:100C7400E4E5F0E0EE83FF8315E00CC0E83511F401
:100C8400086003C0E83709F0C1C0EEE5F0E0EE8388
:100C9400FF8314E002FF1AC0E889F9893497E88BCE
:100CA400F98BA889B98914960E94C407EA87FB873F
:100CB400AB85AA232AF40E94C007EA87FB874DE28A
:100CC400403011F01F5F01C00B7F0CC0E889F98927
:100CD4003497E88BF98BA889B98914960E94C407C4
:100CE400EA87FB8700FD15C0151798F407FF08C0B5
:100CF40002FF04C00B7F242F115001C020E301C068
:100D040020E22A93AD85BE85EF85F8890995515077
:100D1400EBCF312F01FF1BC03030C1F003FF06C001
:100D2400EE81FF812591EE83FF8305C0AE81BF81F3
:100D34002D91AE83BF832A93AD85BE85EF85F88957
:100D44000995503009F051503150E6CF52C020E39C
:100D5400EE81FF810E94C807E887F987EE81FF8151
:100D64003296EE83FF83E885F985AA85BB85AE17A5
:100D7400BF0750F02F5FA885B985EA85FB85EA1B7C
:100D8400FB0BEA87FB87EFCF2A3328F003FF02C06F
:100D9400295F01C0295D04FD1DC0213320F4A8850D
:100DA400B985119709F409C0531710F000FF01C069
:100DB4001AC020E207FF0EC020E3006102FF0AC050
:100DC4000B7F4A93AD85BE85EF85F8890995503030
:100DD40009F051502A93AD85BE85EF85F8890995B0
:100DE400503009F051503150A885B985129708F058
:100DF400AECF00FF0BC0503049F05150E0E2EA930F
:100E0400AD85BE85EF85F8890995F5CF10E0A0CEB4
:100E1400AC85BD850E94C4070E94D30764960895DB
:100E2400FF92F82E26970E94CE07DE011C960E94A0
:100E3400BC070E94C407309719F4EFEFFFEF27C0F7
:100E4400DE0116960E94BC078D01DE011C960E94ED
:100E5400BC070E94C407EE83FF83E0E0E887E987CC
:100E6400DE011A960E94BC070E94C407FA93EA9313
:100E74001A930A93EEE5F5E0FA93EA93DE011A96E3
:100E84005BDE9F01AE81BF81E0E0EC93F9010E943B
:100E9400D5072A96FF900895BA93AA93B981A88199
:100EA400EC918A2FAE2F0E94A707A82FEE2311F0F2
:100EB4001196F6CFE894EC91ED3211F4689402C0E7
:100EC400EB3209F4119666277727EC918A2FAE2F1F
:100ED4000E949E07A82FEE2379F0FB01660F771F6F
:100EE400660F771F6E0F7F1F660F771FED91FF2729
:100EF400E0536E0F7F1FE9CFFB011EF4E095F095E0
:100F0400319622960895BA93AA93A991B991EE279E
:100F1400FF276D91662311F03196FBCF0895BA93A4
:100F2400AA93AA27BB27E991F9910590002011F013
:100F34001196FBCFFD010895AA93E1E0F991F033F6
:100F440010F0FA3308F0EE270895AA93E1E0F9913E
:100F5400F03229F0F93010F0FE3008F0EE27089551
:100F6400109639F080ED97E00197F1F7A895119765
:100F7400C9F708950024AF0DB01D0895F195E195CA
:100F8400F0400895ED91FC91119708950590F49126
:100F9400E02D08955A934A933A932A931A930A9305
:100FA40008955D814C813B812A81198108810895CE
:00000001FF
