:040000000C947000EC
:100004000C9400000C9400000C9400000C9400006C
:100014000C9400000C9400000C9400000C9400005C
:100024000C9400000C9400000C9400000C9400004C
:100034000C9400000C9400000C9400000C9400003C
:100044000C9400000C9400000C9400000C9400002C
:100054001027E80364000A000100001000011000EA
:10006400010048656C6C6F20416D697272657A613C
:1000740020486F737365696E6920657870370D2049
:10008400456E74657220796F7572204E616D653AA4
:100094000D0000000000000000000000000000004F
:1000A400000000000000000000000000000000004C
:1000B400000000000000000000000000000000003C
:1000C400000000000000000000000000000000002C
:1000D400000080C002006001D6000000F894EE2702
:1000E400ECBBF1E0FBBFEBBFE5BF8DE0A2E0BB27BB
:1000F400ED938A95E9F780E094E0A0E6ED9301970B
:10010400E9F7E8EDF0E085919591009761F0A5910C
:10011400B59105901590BF01F00105900D920197DE
:10012400E1F7FB01F0CFEFE5EDBFE4E0EEBFC0E6A1
:10013400D1E00C949D006E97E0E0EABBEBBBE7BB1B
:10014400E8BBEFEFE4BBE0E0E5BBE1BBE2BBEBB94E
:10015400E8E1EAB9E6E8E0BDE0E0E0BDE3E3E9B9FF
:10016400A0E10E940C03FE01FA93EA93E6E6F0E0B4
:10017400FA93EA9380E00E94AC022496DE010E9486
:10018400250102D0FECFFFCFEF97219780E4A0E0B6
:10019400B0E0E6E9F0E00E94CB030E94BF0310E068
:1001A40020E030E00E945303E8E2EC83ECE3ED83CB
:1001B400EE83EEE3EF83E887E9E2E9872A5F3F4FC6
:1001C4001D3059F0F901DE011496EA0FFB1F10836C
:1001D4000E9453032F5F3F4FF3CFDE011496A20F0B
:1001E400B31FE8E2EC93F90131960E945903329669
:1001F4000E94590333960E94610334960E9461035E
:100204003596DE011496AE0FBF1FE9E2EC93F901B7
:100214003696DE011496AE0FBF1FEDE0EC93DE01BF
:1002240014960E9425010E94C603EF962596089510
:100234005F9BFECFECB10895AA935D9BFECFE8814E
:10024400ECB90C943803BA93AA931A93A981BA818E
:10025400ED91A983BA831E2FE03019F0A12FECDFB2
:10026400F5CFAAE0E9DF188123960895BA93AA93FB
:100274001A930A93AA81BB8112960E94B503309700
:1002840059F1AA81BB8114960E94B5038F0130975E
:1002940061F00230E0E01E0798F0F80131978F0119
:1002A400AA81BB811496ED93FC93AA81BB8112961B
:1002B400ED91FD913196FE93EE933197AC81A0833D
:1002C400AA81BB810E94B503FF232AF0ED91FD9121
:1002D4003196FE93EE9306C0AA81BB81EFEFFFEF48
:1002E400ED93FC931981088125960895BA93AA93F6
:1002F40026970E94BD0310E0AC85BD85E0E0F0E0E8
:10030400ED93FC93EA89FB893196EA8BFB8B319759
:10031400E4912E2FE03009F415C1E12FE03039F4D7
:10032400253211F411E002C00E9469030AC1E130D0
:10033400A9F4253219F40E94690302C112E040E0D5
:1003440000E02D3211F401E0FCC02B3211F44BE239
:10035400F8C0203211F440E2F4C002C0E23039F4B3
:1003640050E013E0203311F40068EBC003C0E33025
:1003740009F0E7C0203310F02A3308F007C0AAE0E0
:100384005A9F502DE22FE0535E0FDBC0E22FE3367D
:1003940049F40E947003E889F989A481AA930E9410
:1003A4007603CEC0E33741F40E9470030E947C03BD
:1003B4000E943A031E2F0AC0E03761F40E947003C2
:1003C4000E947C030E9446031E2F086002600F7780
:1003D40030E034C0E43611F0E93611F4046002C0B0
:1003E400E53731F4E4E5F0E0EE83FF8315E00CC07B
:1003F400E83511F4086003C0E83709F0A1C0EEE560
:10040400F0E0EE83FF8314E002FF14C00E94700347
:100414000E948603AB85AA233AF4EA85FB850E94F1
:10042400B103EA87FB874DE2403011F01F5F01C042
:100434000B7F04C00E9470030E94860300FD11C05C
:10044400151778F407FF08C002FF04C00B7F242FA0
:10045400115001C020E301C020E20E946903515001
:10046400EFCF312F01FF17C03030A1F003FF06C0DA
:10047400EE81FF812591EE83FF8305C0AE81BF81AC
:100484002D91AE83BF830E946903503009F051500F
:100494003150EACF4BC020E3EE81FF810E94B903C3
:1004A400E887F987EE81FF813296EE83FF83E88542
:1004B400F985AA85BB85AE17BF0750F02F5FA885C5
:1004C400B985EA85FB85EA1BFB0BEA87FB87EFCF3F
:1004D4002A3328F003FF02C0295F01C0295D04FD0F
:1004E4001AC0213320F4A885B985119709F409C0ED
:1004F400531710F000FF01C013C020E207FF0BC028
:1005040020E3006102FF07C00B7F4A930E94760339
:10051400503009F051500E946903503009F0515095
:100524003150A885B985129708F0B5CF00FF08C0EF
:10053400503031F05150E0E2EA930E947603F8CF54
:1005440010E0E0CEAC85BD850E94B5030E94C403D3
:1005540064960895FF92F82E26970E94BF030E9486
:100564008E03309719F4EFEFFFEF23C0DE011696E8
:100574000E94AD038D010E948E03EE83FF83E0E0B1
:10058400E887E987DE011A960E94AD030E94B5034D
:10059400FA93EA931A930A93E8E3F1E0FA93EA935D
:1005A400DE011A96A3DE9F01AE81BF81E0E0EC93E9
:1005B400F9010E94C6032A96FF900895AA93E5B311
:1005C400EF70AE2FE881E07FEA2BE5BB8DE08A95E2
:1005D400F1F7AA9A8DE08A95F1F7AA988DE08A95A9
:1005E400F1F744C0AA93A881E9DFE881E295E883A2
:1005F400A881E4DF85E88A95F1F738C0A2E00E947B
:100604009503ACE0EFDFA1E00E949503E0E04E2EFD
:100614005E2E0895AA93E4B3E06FE4BBA29AA09A75
:10062400A19AAA98A898A9987880E881E058E093BC
:100634006201E881E054E0936301A4E1B0E00E9428
:10064400A3030E949B030E949B030E949B03A0E2BE
:10065400B5DF88EC90E00197F1F7A8E2C3DFA4E0EE
:10066400C1DFA5E8BFDFA6E0BDDFC8DF219608959E
:10067400BA93AA93A991B991EE27FF276D916623A6
:1006840011F03196FBCF0895BA93AA93AA27BB27FA
:10069400E991F9910590002011F01196FBCFFD012D
:1006A40008950E941A011E2FA12F0C941E01DE0131
:1006B4001496AE0FBF1FECE3EC93F9010895DE012D
:1006C4001496AE0FBF1FEEE3EC93F90108952A933D
:1006D400AD85BE85EF85F88909950895E889F9897E
:1006E4003497E88BF98B0895AD85BE85EF85F8893D
:1006F40009950895A889B98914960E94B503EE83D3
:10070400FF83AE81BF810895A889B98914960E9498
:10071400B503EA87FB870895DE011C960E94AD03AA
:100724000E94B50308950E94F402A3E0B0E00C9483
:10073400A303A0E30E94E00288EC90E00197F1F7A4
:100744000895109639F080ED97E00197F1F7A89598
:100754001197C9F708950024AF0DB01D0895F195C0
:10076400E195F0400895ED91FC911197089505905D
:10077400F491E02D08955A934A933A932A931A9345
:100784000A9308955D814C813B812A8119810881F6
:100794000895AC0FBD1F05900D928A95E1F7089559
:00000001FF
