S01700004763634170706C69636174696F6E312E737265635B
S11300000C942A000C94BE000C94F0000C94220171
S11300100C943F000C943F000C943F000C943F0060
S11300200C943F000C943F000C943F000C943F0050
S11300300C943F000C943F000C943F000C943F0040
S11300400C943F000C943F000C943F000C943F0030
S11300500C943F0011241FBECFE5D8E0DEBFCDBF16
S113006010E0A0E6B0E0ECEEF2E002C005900D92E4
S1130070A03AB107D9F70E9454010C9474010C946E
S1130080000098B39F70282F207F922B98BBC098B4
S1130090C19A32E03A95F1F700C0C198EFE8F1E077
S11300A03197F1F700C0000028B32F70F0E18F9F63
S11300B0C0011124822B88BBC19A32E03A95F1F732
S11300C000C0C1988FE99FE00197F1F700C00000DC
S11300D0089598B39F70282F207F922B98BBC09AC5
S11300E0C19A32E03A95F1F700C0C198EFE8F1E027
S11300F03197F1F700C0000028B32F70F0E18F9F13
S1130100C0011124822B88BBC19A32E03A95F1F7E1
S113011000C0C1988FE99FE00197F1F700C000008B
S113012008958FEF87BB8FE39CE90197F1F700C037
S1130130000082E00E94410088E20E9441008CE0BD
S11301400E94410086E00E94410081E00E9441003B
S11301508FE99FE00197F1F700C000000895CF9365
S1130160DF93EC018881882331F021960E94690095
S113017089918111FBCFDF91CF91089578941F92DB
S11301800F920FB60F9211242F933F934F935F93C7
S11301906F937F938F939F93AF93BF93EF93FF934B
S11301A00E94910080E690E00E94AF002FEF80E76C
S11301B092E0215080409040E1F700C00000FF91A0
S11301C0EF91BF91AF919F918F917F916F915F91CB
S11301D04F913F912F910F900FBE0F901F90189544
S11301E078941F920F920FB60F9211242F933F937E
S11301F04F935F936F937F938F939F93AF93BF932B
S1130200EF93FF930E9491008DE690E00E94AF006F
S11302102FEF80E792E0215080409040E1F700C04A
S11302200000FF91EF91BF91AF919F918F917F91CA
S11302306F915F914F913F912F910F900FBE0F904F
S11302401F90189578941F920F920FB60F92112455
S11302502F933F934F935F936F937F938F939F93CA
S1130260AF93BF93EF93FF930E9491008AE790E0CE
S11302700E94AF002FEF80E792E021508040904031
S1130280E1F700C00000FF91EF91BF91AF919F9102
S11302908F917F916F915F914F913F912F910F902B
S11302A00FBE0F901F9018950E94910087E890E070
S11302B00E94AF0080EC0E94410088E990E00E9417
S11302C0AF002FEF84E39CE0215080409040E1F7A1
S11302D000C0000080EE8BBF82E085BF80E484BF55
S10F02E078940E949100FDCFF894FFCFA9
S11302EC696E20726F7574696E65203000696E20BA
S11302FC726F7574696E65203100696E20726F754A
S113030C74696E65203200416D697272657A614858
S113031C6F737365696E6900393832303336330064
S9030000FC
