:0A0000000C9494040C9400000C947E
:10000A0000000C9400000C9400000C9400000C9466
:10001A0000000C9400000C94C1040C9400000C9491
:10002A0000000C9400000C9400000C9400000C9446
:10003A0000000C9400000C9400000C9400000C9436
:10004A0000000C9400000C940000050720600000DA
:10005A0000000000005F00000007000700147F1482
:10006A007F14242A7F2A12231308646236495522F0
:10007A00500005030000001C2241000041221C0020
:10008A00082A1C2A0808083E080800503000000800
:10009A0008080808003030000020100804023E5109
:1000AA0049453E00427F400042615149462141454F
:1000BA004B311814127F1027454545393C4A4949A6
:1000CA003001710905033649494936064949291E4D
:1000DA00003636000000563600000008142241148B
:1000EA001414141441221408000201510906324959
:1000FA0079413E7E1111117E7F494949363E41417F
:10010A0041227F4141221C7F494949417F09090116
:10011A00013E414151327F0808087F00417F41007A
:10012A002040413F017F081422417F404040407FE8
:10013A000204027F7F0408107F3E4141413E7F094D
:10014A000909063E4151215E7F0919294646494956
:10015A00493101017F01013F4040403F1F204020BB
:10016A001F7F2018207F6314081463030478040394
:10017A00615149454300007F414102040810204172
:10018A00417F000004020102044040404040000157
:10019A0002040020545454787F4844443838444474
:1001AA004420384444487F3854545418087E09017E
:1001BA0002081454543C7F0804047800447D40002B
:1001CA002040443D00007F10284400417F40007CCD
:1001DA00041804787C0804047838444444387C14AD
:1001EA00141408081414187C7C080404084854548D
:1001FA005420043F4440203C4040207C1C204020A6
:10020A001C3C4030403C44281028440C5050503C80
:10021A004464544C44000836410000007F0000004A
:10022A004136080002010204027F4141417F9500E4
:10023A003D00FFFFFFFFFFFFFFFFFFFFFFFFFFFF85
:10024A00FFFFFFFFFFFFFFFFFFFFFFFFFFFFFFFFB4
:10025A00FFFFFFFFFFFFFFFFFFFFFFFFFFFFFFFFA4
:10026A00FFFFFFFFFFFFF3E1C08001010307070E55
:10027A001C10000000000000031FFF070000000020
:10028A0000000001030100000000E3FFFFFFFFFF81
:10029A00FFFFFFFFFFFFFFFFFFFFFFFFFFFFFFFF64
:1002AA00FFFFFFFFFFFFFFFFFFFFFFFFFFFFFFFF54
:1002BA00FFFFFFFFFFFFFFFFFFFFFFFFFFFFFFFF44
:1002CA00FFFFFFFFFFFFFFFFFFFFFFFFFFFFFFFF34
:1002DA00FFFFFFFFFFFFFFFFFFFFFFFFFFFFFFFF24
:1002EA00FFFFFFFFFFFFFFFFFFFFFFFFFFFFFFFF14
:1002FA00FFFFFF7F3F3F3F3F3F3D3F3F3F3F7F3F46
:10030A001E1C1C1810000000000080C0E0F0F0F075
:10031A00F1F0F0E0E0C0C0808000000000000103BE
:10032A00070707070707070F0F1FFFFFFFFFFFFF5B
:10033A00FFFFFFFFFFFFFFFFFFFFFFFFFFFFFFFFC3
:10034A00FFFFFFFFFFFFFFFFFFFFFFFFFFFFFFFFB3
:10035A00FFFFFFFFFFFFFFFFFFFFFFFFFFFFFFFFA3
:10036A00FFFFFFFFFFFFFFFFFFFFFFFFFFFFFFFF93
:10037A00FFFFFFFFFFFFFFFFFFFFFFFFFFFFFFFF83
:10038A00FFFFFFFFFFFFFFF0E0C0C0C0808000005A
:10039A000000000000000000000000000000000F44
:1003AA007FFFFFFFFFFFFFFFFFFFFFFFFFFFFEFCD7
:1003BA00F8380000000000000000001038383C3F08
:1003CA007FFFFFFFFFFFFFFFFFFFFFFFFFFFFFFFB3
:1003DA00FFFFFFFFFFFFFFFFFFFFFFFFFFFFFFFF23
:1003EA00FFFFFFFFFFFFFFFFFFFFFFFFFFFFFFFF13
:1003FA00FFFFFFFFFFFFFFFFFFFFFFFFFFFFFFFF03
:10040A00FFFFFFFFFFFFFFFFFFFFFFFFFFFFFFFFF2
:10041A00FFFFFFFFFFFFFFFFFFFFFFFFFFFFFFFFE2
:10042A00FFFFFFFF3E1C0C00000000000000000060
:10043A000000000000000307070F0F0F1F1F3F3FB8
:10044A003F1F1F0F07070000000000000000000008
:10045A000000000000000000033FFFFFFFFFFFFF56
:10046A00FFFFFFFFFFFFFFFFFFFFFFFFFFFFFFFF92
:10047A00FFFFFFFFFFFFFFFFFFFFFFFFFFFFFFFF82
:10048A00FFFFFFFFFFFFFFFFFFFFFFFFFFFFFFFF72
:10049A00FFFFFFFFFFFFFFFFFFFFFFFFFFFFFFFF62
:1004AA00FFFFFFFFFFFF7F7F7F7F7FFFFFFFFFFFD2
:1004BA00FFFFFFFFFFFFFFFFFFFCF8F0F0F0E0E0B7
:1004CA00F0F0F0F8FC7C3E1F0F0100000000000075
:1004DA00000000E0F0E0C080000000000000000022
:1004EA0000000000000000003878F8F8F8FCFFFF70
:1004FA00FFFFFFFFFFFFFFFFFFFFFFFFFFFFFFFF02
:10050A00FFFFFFFFFFFFFFFFFFFFFFFFFFFFFFFFF1
:10051A00FFFFFFFFFFFFFFFFFFFFFFFFFFFFFFFFE1
:10052A00FFFFFFFFFFFFFFFFFFFFFFFFFFFFFFFFD1
:10053A00FFFFFFFF1F030100000000000000000092
:10054A0000000103070F1F3FFFFFFFFFFFFFFFFF31
:10055A00FFFFFFFF7F1F07030100000000000000EC
:10056A00000000000000000081FF072F3F1F0E0659
:10057A00000000000000000000000080C0F0FCFF46
:10058A00FFFFFFFFFFFFFFFFFFFFFFFFFFFFFFFF71
:10059A00FFFFFFFFFFFFFFFFFFFFFFFFFFFFFFFF61
:1005AA00FFFFFFFFFFFFFFFFFFFFFFFFFFFFFFFF51
:1005BA00FFFFFFFFFFFFFFFFFFFFFFFFFFFFFFFF41
:1005CA00FFFFFFFFFFFFFFFFFF000000000000002A
:1005DA000000000000000000000000000000010F01
:1005EA003FFFFFFFFFFFFF7F030000000000000046
:1005FA0000000000000000000000000000010000F0
:10060A0000000000000000000000000000000000E0
:10061A0080FFFFFFFFFFFFFFFFFFFFFFFFFFFFFF5F
:10062A00FFFFFFFFFFFFFFFFFFFFFFFFFFFFFFFFD0
:10063A00FFFFFFFFFFFFFFFFFFFFFFFFFFFFFFFFC0
:10064A00FFFFFFFFFF1F1F07070703030303070738
:10065A0007070F0F0F1F1F1F1F1F1F1F1F1F1E0020
:10066A000000000000000000000000000000000080
:10067A0000000000000000071F1F1F1F00000000ED
:10068A000000000000000000000000000000000060
:10069A000000000000000000000000000000000050
:1006AA0000000000181F1F1F1F1F1F1F1F1F1F1FD3
:1006BA001F1F1F1F1F1F1F1F1F1F1F1F1F1F1F1F40
:1006CA001F1F1F1F1F1F1F1F1F1F1F1F1F1F1F1F30
:1006DA001F1F1F1F1F1F1F1F1F1F000103070F1FA1
:1006EA003F7FFF008700EB00ED00EB008700FF0073
:1006FA00FF00FF008300EF00EF008300FF00FF0010
:10070A00FF00FF00FF008700EB00ED00EB00870011
:10071A00FF00FF00FF008300EF00EF008300FF00EF
:10072A00FF00FF00FF00FF008700EB00ED00EB0079
:10073A008700FF00FF00FF008300EF00EF00830047
:10074A00FF00FF00FF00FF00FF008700EB00ED0045
:10075A00EB008700FF00FF00FF008300EF00EF00BF
:10076A008300FF00FF00FF00FF00FF008700EB008F
:10077A00ED00EB008700FF00FF00FF008300EF00A1
:10078A00EF0083008300FF00FF00FF00FF008700E7
:10079A00EB00ED00EB008700FF00FF00FF00830085
:1007AA00EF00EF00EF008300FF00FF00FF00FF00F3
:1007BA008700EB00ED00EB008700FF00FF00FF0061
:1007CA008300EF00EF00EF008300FF00FF00FF004F
:1007DA00FF008700EB00ED00EB008700FF00FF0041
:1007EA00FF0083008300EF00EF008300FF00FF009B
:1007FA00FF00FF008700EB00ED00EB008700FF0021
:10080A00FF00FF00FF008300EF00EF008300FF00FE
:10081A00FF00FF00FF008700EB00ED00EB00870000
:10082A00FF00FF00FF00FF008300EF00EF008300DE
:10083A00FF00FF00FF00FF008700EB00ED00EB0068
:10084A008700FF00FF00FF00FF008300EF00EF00BA
:10085A008300FF00FF00FF00FF008700EB00ED00B0
:10086A00EB0087008700FF00FF00FF008300EF0016
:10087A00EF008300FF00FF00FF00FF008700EB008E
:10088A00ED00EB00EB008700FF00FF00FF00830094
:10089A00EF00EF008300FF00FF00FF00FF0087006A
:1008AA00EB00ED00ED00EB008700FF00FF00FF000A
:1008BA008300EF00EF008300FF00FF00FF00FF004E
:1008CA008700EB00EB00ED00EB008700FF00FF0064
:1008DA00FF008300EF00EF008300FF00FF00FF002E
:1008EA00FF0087008700EB00ED00EB008700FF00A8
:1008FA00FF00FF008300EF00EF008300FF00FF000E
:10090A00FF00FF0001002D4E414E00494E460000F7
:10091A001F027D01EE060100B8030E090000F894DB
:10092A00EE27ECBBF1E0FBBFEBBFE5BF8DE0A2E039
:10093A00BB27ED938A95E9F780E094E0A0E6ED9372
:10094A000197E9F7EAE1F9E085919591009761F05D
:10095A00A591B59105901590BF01F00105900D92F2
:10096A000197E1F7FB01F0CFEFE5EDBFE4E0EEBF61
:10097A00C0E6D1E00C94E2040A921A92FA926A93BF
:10098A007A938A939A93AA93BA93EA93FA93EFB7CC
:10099A00EA93E5E8EDBDEEEEECBD0E94A305E99110
:1009AA00EFBFF991E991B991A991999189917991B9
:1009BA006991F9901990099018950E94F704ADE988
:1009CA00B3E00E9493060E949805A8E8B3E10E944A
:1009DA00E60F7894A0E1B7E20E94E60FF8940E942D
:1009EA003A05FFCFEFEFEABBE0E0EBBBEFEFE7BB87
:1009FA00E0E0E8BBEFEFE4BBE0E0E5BBEFEFE1BB33
:100A0A00E0E0E2BBE3BFE2BFECBFEFBDE4E0EEBD76
:100A1A00E5E8EDBDEEEEECBDE0E0E7BDE6BDEBBD21
:100A2A00EABDE9BDE8BDE2BDE5BDE4BDE3BDE4E084
:100A3A00E9BFE0E0E5BFE4BFEAB9E0E8E8B9E0E031
:100A4A00E0BFE6B9EDB9E6BFE4E5F0E0E0939D0367
:100A5A00F0939E03E0E0F0E0E0939F03F093A0039D
:100A6A00E093A103F093A20308952497E0E0E883BA
:100A7A00E983EA83EB830E94471200E010E020E05A
:100A8A0030E048E050E0E0E0EE83EF83AE81BF81E2
:100A9A00A639E0E0BE0784F5E0E8E2BBF801ADE77D
:100AAA00B1E0EE0FFF1FAE0FBF1F0E946B0EA3E057
:100ABA00B0E00E94E60FE0E0E2BBD801AA0FBB1F3C
:100ACA00A357BE4F0E946B0E0F5F1F4F401751076F
:100ADA0011F408851985F9013196A7E0B0E00E9462
:100AEA00F2119F01A3E0B0E00E94E60FEE81FF81C0
:100AFA003196EE83FF83CACFE8EFF0E0E417F507FB
:100B0A0051F448E050E0E0E0E887E98700E010E0CF
:100B1A0020E030E007C0405F5F4FE885F9857096B6
:100B2A00E887F987B0CFE0E0EA93EA93E8E3F2E0F6
:100B3A00FA93EA93A0E00E94D1090895ABEAB3E0E0
:100B4A000E94730E0E94790EDC9749F4ADEAB3E075
:100B5A000E94730EE0E0E093AB03E093AC030E94C3
:100B6A007E0EDC9749F4AFEAB3E00E94730EE0E030
:100B7A00E093AD03E093AE030E94830E1C9729F421
:100B8A00E0E0E093AF03E093B0032AD10E94880E1D
:100B9A00AEE10E94010DE3E0E0936801E4E0E09336
:100BAA0069010E94880EA2E00E94010D0E948D0E2A
:100BBA000E94940E0E94DE0D0E949F0E0E94A60EB5
:100BCA000E94940E0E94520D0E949F0E0E94AD0E2A
:100BDA000E94B40E0E94BF0E0E94DE0D0E94CA0E31
:100BEA000E94A60E0E94BF0E0E94520D0E94CA0EBB
:100BFA000E94AD0E0E94B40E0E94D10E0E94DE0D1C
:100C0A000E94DC0E0E94A60E0E94D10E0E94520D76
:100C1A000E94DC0E0E94AD0E0E94B40E08950000E0
:100C2A00909A0000089590989498959808951A9328
:100C3A00F6DF13B39098E12F19910895AA931A93A6
:100C4A00E0E0E4BB919A9298E981EF5F1E2F10FFD2
:100C5A0002C0949A01C0949811FF02C0959A01C0EB
:100C6A009598E5DFE078E9F718811CC1AA93A98174
:100C7A00E5DF0E94E30E16C1E091B603EA93E09124
:100C8A00B503EF73E064AE2FF1DFE091B603EA93A8
:100C9A00E091B703E86BAE2FE9DF0895AA93E981E3
:100CAA00E093B503E295EF70E695E695E093B60317
:100CBA00E881E093B703E0DFF5C0A091B503AF5F29
:100CCA00A093B503A03818F0E0E0E093B503E091F3
:100CDA00B503EF7331F4E091B503EA93A091B7033A
:100CEA00DDDF0895AA93A091B603A8DF929A0E9425
:100CFA00E30E21960895A091B603A0DFE0E0E4BBDD
:100D0A00919A929A94DF0895AA93E981EA93E981E4
:100D1A000E94EC0EF0DFB0DFEEDFC4C0BA93AA93F4
:100D2A001A93889A899A8A9A8B9A939A8C9A8D9A04
:100D3A007ADF9398A4E6B0E00E94E60F939A10E057
:100D4A00123040F41A93AFE391DF1A931395A0EC93
:100D5A008DDFF6CFE1E0E0936001E0E0E09361012E
:100D6A00E981FA813097A9F0A981BA810E94FC1120
:100D7A00E0936401F093650112960E94FC11E093DE
:100D8A007901F0937A01A981BA8114960E94FC1123
:100D9A000AC0E0E0F0E0E0936401F0936501E093BB
:100DAA007901F0937A01E0937B01F0937C01E1E011
:100DBA00E0936601E09367010E948D0EE1E0E09303
:100DCA007001E1E7F1E0FA93EA93EFEFEA93A8E022
:100DDA00B0E00E94EA0D04D0E1E01881239608955C
:100DEA000E94491200E030E0E0916101E03009F030
:100DFA000FEF383078F4E0E0EA93A32F3F5F4EDF3D
:100E0A0010E0A12F1F5FA03820F4A02F0E94F20E3D
:100E1A00F8CFEFCFE0E0EA93A0E040DFE0E0EA932A
:100E2A00A0E006D30E94501224960895AA931A931A
:100E3A000A93AC81A03818F4AB81A03408F016C02C
:100E4A00EC81EA93AC8160DF1E2F16DFEB81E7703D
:100E5A00A1E00E94A5110E2FEA81E03011F0102BBB
:100E6A0003C0E02FE0951E23A12F3CDF19810881E2
:100E7A0025960895AA93A981A03818F4A881A034C8
:100E8A0010F0E0E00FC0E981EA93A9813DDF1E2E50
:100E9A00E881E770A1E00E94A511E12111F0E1E0EB
:100EAA0001C0E0E022960895AA931A93ED81EA938D
:100EBA00AD812ADF1E2FE0DEE981E73011F0E8304C
:100ECA0039F4EB81EA93AA810E94050EEB8308C0EC
:100EDA00E33021F4EB81E095EB8302C0E03021F4AA
:100EEA00EA81E0951E2302C0E23029F4EA81AB814F
:100EFA00EA231E2B0EC0E13029F4EA81AB81EA23F2
:100F0A001E2707C0E43029F4EA81E095AB81EA2B79
:100F1A001E23A12F0E94F20E188126960895AA93E5
:100F2A0023970E944712A889A03848F4AF85A034B5
:100F3A0030F4AE85A03019F0AD85A03009F4C8C1EF
:100F4A00EE85E887A889BB27EE85F0E0AE0FBF1FC4
:100F5A00A138E0E0BE0720F0A889E0E8EA1BEE87A6
:100F6A002D85AF85BB27ED85F0E0AE0FBF1FA134FD
:100F7A00E0E0BE0720F0AF85E0E4EA1BED87A98533
:100F8A00A63009F05BC0EC85E13009F4A1C1E33079
:100F9A0039F4E0917B01F0917C01309709F498C112
:100FAA000885ED85E695E695E6953E2FE22FE770F2
:100FBA0019F4AD852A17E9F0A02FBB27E32FF0E03B
:100FCA000E94C411AA85BB850E94F60E2695269515
:100FDA002695532F5F935F5FE22FAF91EA1748F090
:100FEA00102FE12F1150E03019F00E94FB0EF9CFBB
:100FFA00F1CFAE850A1711F1EE85AA85BB85F0E01F
:10100A000E94F60EED85E77009F03F5F20E02F930E
:10101A002F5FE32FAF91AE1788F41E851F931F5FD2
:10102A00E02FAF91AE1718F40E94FB0EF7CFEE85B2
:10103A00AE81BF81F0E00E94F60EE9CFEF85E7703E
:10104A003E2FED85E03009F443C1EA85FB85EE8346
:10105A00FF8310E00889303009F065C0AD85A830FB
:10106A0008F45CC0E985E03011F0E33009F402C00D
:10107A00E73009F402C0E83009F402C0E63009F4A6
:10108A0002C0E93009F402C0EA3021F40A93E8897F
:10109A000E94EC0E1F931F5FEE85AF91AE17B8F555
:1010AA00A985A63061F427DEE7DD0E94080FFA93CE
:1010BA00EA9321DEAE2F0E944C0EFFDD27C0E985A0
:1010CA00E93011F450E00EC0EA3011F45FEF0AC0C3
:1010DA000E94080F0E94110F5E2FE985E73011F078
:1010EA00E83021F40E94170F5E2F06C0E33011F496
:1010FA00509502C0E03021F4A52F0E94F20E06C0DE
:10110A000E941B0FEFEFEA93AD85CEDEC3CFEF85CA
:10111A00E85FEF87ED85E850ED87D1C05D8520E077
:10112A00E0E0ED877AC0E32FAD85AE0FA93020F459
:10113A002D85E0E0ED8703C0E8E0E31B2E2F3A930C
:10114A00A22F0E94FA0D4E2FE985E630F1F41F9383
:10115A001F5FEE85AF91AE17B8F40E94210FAE2F34
:10116A00E32F0E94AD110E94280FE32FA42F0E94A3
:10117A00AD11E095E1215E2B0E94080FFA93EA93E4
:10118A00A52F0E944C0EE3CF2CC0E93011F450E099
:10119A0003C0EA30A9F45FEF0E94170FAE2FE32FC6
:1011AA000E94A5115E2F1F931F5FEE85AF91AE17A8
:1011BA0030F40E941B0F4A93A0E076DEF4CF11C0F0
:1011CA001F931F5FEE85AF91AE1758F40E94330F3D
:1011DA00AE2FE32F0E94A511EA934A93AD8564DEF0
:1011EA00EFCFED85E03009F473C0AD85A83028F45F
:1011FA00ED85E21B5E2FE0E003C0532FED85E8503A
:10120A00ED8710E0EF85E85FEF87E8E0E31B2E2F1C
:10121A000889EA85FB85EE83FF83E52FF0E0EC5130
:10122A00F94F4491E985E630F1F41F931F5FEE858B
:10123A00AF91AE17B8F40E94210FAE2FE22F0E9491
:10124A00A5110E94280FE22FA42F0E94A511E09554
:10125A00E1215E2B0E94080FFA93EA93A52F0E94C0
:10126A004C0EE3CF2CC0E93011F450E003C0EA3051
:10127A00A9F45FEF0E94170FAE2FE22F0E94AD1163
:10128A005E2F1F931F5FEE85AF91AE1730F40E9459
:10129A001B0F4A93A0E008DEF4CF11C01F931F5F13
:1012AA00EE85AF91AE1758F40E94330FAE2FE22F9E
:1012BA000E94AD11EA934A93AD85F6DDEFCFE8853A
:1012CA00AA85BB85F0E0EA0FFB1FEA87FB87B9CE48
:1012DA000E944E12619608950E94400F24F0E0E0A9
:1012EA00F0E00C94030EA881B981A038E0E0BE07B3
:1012FA0024F0EFE7F0E00C94030EE881F9810C94F6
:10130A00030E0E94400F24F0E0E0F0E00C94030E7C
:10131A00A881B981A034E0E0BE0724F0EFE3F0E051
:10132A000C94030EE881F9810C94030EAA93E981C7
:10133A00EA93E981EA93A091600178DD0C94030EA7
:10134A00AA931A93AA81A03818F4A981A03438F074
:10135A00E0E0F0E060E070E018810C944A0EE98168
:10136A00E7701E2FE981E695E695E695E983103048
:10137A0011F0EF5FE983AA81BB2788279927E981C2
:10138A00FF27662777270E94CC11EC5FFF4F6F4F2C
:10139A007F4F18810C944A0EAA930E944912AC817D
:1013AA00A53018F5ED81FE8105910E94470F159130
:1013BA000E94470F25910E94470F3591ED83FE83C6
:1013CA00E885EA93E885EA930A932A93E1E0EA93A7
:1013DA00EA85FB85FA93EA93AB85A1DD0A93A22FEE
:1013EA00AFDF0E9450120C94DC0DE0E0F0E060E008
:1013FA0070E00E9450120C94DC0DAA93EA81EA93E1
:10140A00EA81EA93E0916901AA81EA2319F0E0915D
:10141A00600102C0E0916101AE2F08DDE881EE0FA4
:10142A00E883E03011F4E1E0E883E8810C944A0EA5
:10143A00AA93A981BB2750DFE0936201A881BB2749
:10144A0060DFE09363010C94030EAA932B970E942A
:10145A004712AC89BB2740DFEC8BAA89BB273CDF4C
:10146A00EA8BAB89BB274DDFEB8BA989BB2749DF09
:10147A00E98BEA89E0936201E989E0936301E1E09B
:10148A00E887E989AB89EA1771F51C89AA891A17CD
:10149A0031F41A93EC89EA93A1E0AFDFC8C0AA89B4
:1014AA001A1730F4EA89E11B0E2F41E050E006C01A
:1014BA00AA89E12FEA1B0E2F4FEF5FEF3B89E0E08D
:1014CA00EE830E944A0F38F41A933A933395AA8509
:1014DA0094DFEF83F6CFEF81E887140FE02F0150F6
:1014EA00E03061F7A4C0EA89AC89EA1739F53B898B
:1014FA00A9893A1730F4E989E31B2E2FE1E0F0E0DD
:10150A0006C0A989E32FEA1B2E2FEFEFFFEFED8725
:10151A00FE871C89E0E0EE830E944A0F30F41A939A
:10152A0013950E94520FEF83F7CFEF81E887ED857D
:10153A003E0FE22F2150E03061F779C0E0E0EE8300
:10154A000E944A0F08F073C01C893B89E1E02E2FE4
:10155A000E2FAA89BB27EC89F0E0AE1BBF0BAD01A9
:10156A0055232AF40FEFFA010E949911AF01FA01EB
:10157A00EE0FFF1FEF87F88BA989BB27EB89F0E0F5
:10158A00AE1BBF0BAD87BE87AE85AA233AF42FEFF9
:10159A00ED85FE850E949911ED87FE87ED85FE8512
:1015AA00EE0FFF1FEB87FC871A933A93A1E025DF22
:1015BA00E887E0E0E987EA87AD85BE854A175B07D9
:1015CA00BCF0100FEB85FC850E94560FA985BA85E1
:1015DA004A175B072CF4320FAF85B8890E945D0F5A
:1015EA001A930E94520FE887EA89E11751F718C047
:1015FA00320FEF85F8890E94560FED85FE85A98581
:10160A00BA85EA17FB072CF4100FAB85BC850E943C
:10161A005D0F1A930E94520FE887E989E31741F791
:10162A00EB89EF5FEB8BE989EF5FE98B89CF0E944A
:10163A004E1265960895BA93AA9323970E94471269
:10164A00ED85E887E0916801EF83E0916001EE8320
:10165A00AA89BB27EF850E94640FE8890E946B0F55
:10166A00E8890E94720F71F0E885E078F1F4AD859F
:10167A00BE85EAE5F0E00E947A0F1CF00E94830F13
:10168A000CF413C0332312F00E94880FAF81A230EA
:10169A0020F02230E0E03E070CF407C00E948C0FD5
:1016AA0021F40A93A22FA15041DEE885E878E838B0
:1016BA0091F0E885E078C9F4AD85BE85A25FBE4F9A
:1016CA000E94950F3CF0AD85BE85A25FBE4F0E9479
:1016DA009A0F0CF40AC00E949F0F38F00E94A60FBE
:1016EA0021F40A93A42FAF5F21DEAA89BB27EF85D5
:1016FA00F0E0AE1BBF0B8D0111230AF445C0E8854B
:10170A00E278E23891F0E885E07811F5AD85BE859A
:10171A00A65ABF4F0E94950F3CF0AD85BE85A65ACA
:10172A00BF4F0E949A0F0CF413C0332312F00E9489
:10173A00880FAF81A23020F02230E0E03E070CF49F
:10174A0007C00E948C0F21F40A93A22FA150EEDD4C
:10175A00E885E478E43871F0E885E078A9F4AD85A5
:10176A00BE85EEE0F1E00E947A0F1CF00E94830F22
:10177A000CF40AC00E949F0F38F00E94A60F21F4B1
:10178A000A93A42FAF5FD2DDAA89BB27E8890E94FA
:10179A00640FEF850E946B0FEF850E94720F81F034
:1017AA00E885E078F1F4EB85FC85AD85BE85AE175A
:1017BA00BF072CF0E985FA85EA17FB070CF411C07C
:1017CA0033237AF00E94880FAF81A23050F0E02FC5
:1017DA00EE5F0E94AF0F29F4E02FEF5FEA93A22F8A
:1017EA00A5DDE885E878E83871F0E885E078C1F4A5
:1017FA00AD85BE85E8E6F1E00E947A0F1CF00E94F2
:10180A00830F0CF40DC00E949F0F50F0E02FEE5F83
:10181A000E94B70F29F4E02FEF5FEA93A42F86DD29
:10182A00AA89BB27E889F0E0AE1BBF0B8D01112303
:10183A000AF450C0E885E278E23871F0E885E07889
:10184A0009F5AD85BE85E4EBF0E00E947A0F1CF045
:10185A000E94830F0CF416C03323A2F00E94880F53
:10186A00AF81A23020F00230E0E01E070CF40AC07B
:10187A00E02FE2500E94AF0F29F4E02FE150EA93E3
:10188A00A22F54DDE885E478E43891F0E885E07821
:10189A0009F5AD85BE85AC54BF4F0E94950F3CF04B
:1018AA00AD85BE85AC54BF4F0E949A0F0CF412C08E
:1018BA000E949F0F20F00230E0E01E070CF40AC0DD
:1018CA00E02FE2500E94B70F29F4E02FE150EA938B
:1018DA00A42F2CDD0E944E1263960895AA930E94AB
:1018EA004912AF81BB27ED81F0E0AE1BBF0BF4DCE0
:1018FA001E2FAF81BB27ED81F0E0AE0FBF1FECDCDE
:10190A000E2FAE81BB27EC81F0E0AE1BBF0BF9DCDA
:10191A003E2FAE81BB27EC81F0E0AE0FBF1FF1DC9A
:10192A002E2F1A933A930A93A32F8FDD1A932A9391
:10193A000A93A22F8ADD0E94501228960895AA932C
:10194A000E944712A985A03818F4A885A03408F087
:10195A004FC050916801E52F5150E03009F448C05A
:10196A00EF81E03009F444C0EF81E150EF83EF5F8B
:10197A000E2FF0E0A5E0B0E0AE1BBF0BFD010E9408
:10198A00B5110E94BA119F0110E0AE81A03459F43A
:10199A000E94BF0F1A93A02FA1DF0E94BF0F0A93C4
:1019AA00A12F9CDF0FC00E94BF0F1A930A93EA85EA
:1019BA00F0E0FA93EA93E0E0F0E0FA93EA93A0E029
:1019CA00B0E039DE1F5F33231AF4E12FF0E008C0DC
:1019DA000150A12FBB27E02FF0E0AE1BBF0BFD018A
:1019EA00EE0FFF1F31962E0F3F1F011770F6B3CF70
:1019FA000E944E122A960895AA93EA81EA93EA81EE
:101A0A00EA93EA81EA93AFE89ADF0C944A0E0E94BD
:101A1A0014127B816A81F981E88177FB770F67FD70
:101A2A007160972F9E5781F078F0983190F4AA2729
:101A3A00BB27882708948795B795A7959A95D1F7D4
:101A4A00EA23FB23682305C0E8947727EE27FF27BC
:101A5A0066276F77769508F4606877F9A991B99146
:101A6A0089919991EA17FB076807790797FB089507
:101A7A000E94C40F0E940C0D0E940F1221F40E94B2
:101A8A0005120C94690EDEF70E940512A0E0B0E080
:101A9A0080E89FE30E948F1017C10E9414122497B6
:101AAA001A9310E00E94C90FE3E8F9EF62E27EE3BD
:101ABA000E94E6100E94CE0FDBDF0E94C90F0E942F
:101ACA0019120E948F100E94CE0FE0E0F0E060E051
:101ADA007FE30E94791109F008F409C00E94D30F2C
:101AEA00A0E0B0E080E09FE30E94D80F11E00E94DE
:101AFA00C90FE0E0F0E060E87EE30E94791109F0A6
:101B0A0008F408C00E94C90FE0E0F0E060E07FE35B
:101B1A000E94D80F103041F00E94D30F0E94F00F9C
:101B2A00ED83FE836F8378870E94D30F0E94C90FCB
:101B3A000E94E610E983FA836B837C83A1EBB4EC01
:101B4A0086E292E40E94E610DF01CB01EDE1F5EEB8
:101B5A006DE272E40E9419120E948F100E94DF0F38
:101B6A00ACE4B3E584E091E40E9496100E94C90FA8
:101B7A000E94E6107F936F93FF93EF93E981FA81B6
:101B8A006B817C81A1E1BDEE8EED9FE30E949610F0
:101B9A000E94DF0FAEE5BBE788EA9FE30E9496103A
:101BAA00AF91BF918F919F910E943411188129960C
:101BBA0008950E94C40FEBEDFFE069EC7FE30E94F9
:101BCA008F10DF01CB0169DF7FC0BA93AA93B98175
:101BDA00A881109631F0FC81EB816A81619311979B
:101BEA00E9F7EB81FC8125960895AA93E881F0E054
:101BFA00EC51F94FA491E9810E94A511229608950A
:101C0A00AA931A93E981E73011F0EA3019F4109196
:101C1A00600109C0E93019F41091610104C0E8308B
:101C2A00A1F410917001E0916101E03049F01030A7
:101C3A0019F0EFEF188129C0EA81E095188125C0D3
:101C4A00103019F4E0E0188120C0EA8118811DC023
:101C5A00BA93AA93EA81E13021F4E881F981E49107
:101C6A0014C0E23029F4A881B9810E9426120DC05D
:101C7A00E33041F4A881B981E0917901F0917A01C8
:101C8A00099503C0A881B981EC9123960895AA9376
:101C9A00EB81E03029F4E881A981BA81EC9314C080
:101CAA00E23031F4E881A981BA810E9432120CC073
:101CBA00E33051F4E981FA81FA93EA93AA81E09137
:101CCA007B01F0917C01099524960895EC91E8BB7B
:101CDA00E22FA1E00E94A511EBBB0895ED91FD91C1
:101CEA003196FE93EE930895A091AB03B091AC03A5
:101CFA000895A091AD03B091AE030895A091AF03EA
:101D0A00B091B0030895EFE3EA93EFE1EA930895FF
:101D1A00E1E0E0936801EFEFE09369010895E4DF01
:101D2A00E6E00E94EC11662777270E945C10DF012B
:101D3A00CB010895A0E0B0E088EC91E40E94E6109F
:101D4A000895A3EAB3E00E9423100E9400120895A6
:101D5A00A7EAB3E00E9423100E940012D4CFE091B8
:101D6A00A303E15CEA93A091A703EFE1EA1BAE2F7C
:101D7A000C942A0ABEDFE6E00E94EC116627772758
:101D8A000E945C10DF01CB010895A0E0B0E080EA78
:101D9A0091E40E94E6100895B1DFE6E00E94EC119A
:101DAA00662777270E945C10DF01CB010895A0E027
:101DBA00B0E080E791E40E94E61008959198EFEF71
:101DCA00E4BBE881E5BB0E9414060C941806E6956C
:101DDA00E695E695AE2F0C9453060E9477060C946E
:101DEA006206EA0FFB1FEE83FF830895EC85EA93F0
:101DFA00EF81F8853196EF83F8873197FA93EA9362
:101E0A00A0E00C944C0EEC85EA93EF81F8853196AC
:101E1A00EF83F8873197089566277727DF01CB018B
:101E2A000C942D0E5A93AA850C94050E0A930395C9
:101E3A00E889EA935A9308950A930395A8890E9418
:101E4A008906E42308955E2FEC85EA93AF81B8856D
:101E5A00882799270E942D0E1E2E08950A9303950E
:101E6A00E889EA93EE85EA93E985FA853196E98766
:101E7A00FA873197D1CFBA93AA93A881B9810E94E0
:101E8A0043120895ED83FE830895AE81AF5FAE835A
:101E9A00A150E0916801AE1708953A93AA850C946F
:101EAA00020AA985BA85EA0FFB1FE987FA8708950E
:101EBA00E985FA85EA1BFB0BE987FA870895F0E0C2
:101ECA00EA0FFB1F8F01A989BB270895F0E0AE1B1B
:101EDA00BF0B9D01A989BB270895F0E0EA0FFB1FFC
:101EEA00AF01E885E178E1380895EA1BFB0B0F01A1
:101EFA00DF01EB85FC85AE17BF070895E985FA85F2
:101F0A00E015F10508950A93A22F0C949B090A93F0
:101F1A00A22FA2500E943F07AE2FEE81EA17089522
:101F2A00EB85FC85AE17BF070895E985FA85EA17A0
:101F3A00FB0708950A93A42F0E949B09AF81A23040
:101F4A0008950A93A42FAE5F0E943F07AE2FEE8139
:101F5A00EA170895EA93A22F0E943F07AE2FEE8157
:101F6A00EA170895EA93A42F0E943F07AE2FEE8145
:101F7A00EA170895E985EA93E985EA9308950E94A4
:101F8A0014120E940A120895AD81BE818F8198852C
:101F9A000895ED83FE836F837887F6CFED81FE8106
:101FAA006F81788508950E948F10ED83FE836F8379
:101FBA0078870895A981BA818B819C810E94E61055
:101FCA000895109639F080ED97E00197F1F7A895FA
:101FDA001197C9F7089530976040704009F070581A
:101FEA000895552342F4503811F4E0FF04C03196A5
:101FFA00691F791F6BF050E8572711F45F93CFC020
:10200A005F3F31F0660F000C57956795752F08955D
:10201A005F9300200AF0CFC0C8C050E8192E1522DD
:10202A00880F991F9527550F879550E8072E052287
:10203A00660F771F7527550F67950895689401C035
:10204A00E8945F93F2DF703818F07F3F08F4A7C076
:10205A0056E1571BAAF4519558300EF4593030F016
:10206A00EFEFFFEF6FEF7FE777F91AC07727552376
:10207A00B9F0EE0FFF1F661F771F5A95D1F710C0F0
:10208A007727583028F0EF2FF62F672F5850F9CFBF
:10209A00552331F076956795F795E7955A95D1F7D7
:1020AA0000200AF445D15F910895689401C0E8942C
:1020BA00309760407040B1F0002426F0772312F484
:1020CA00009436D1172E7EE1112032F07A95EE0F68
:1020DA00FF1F661F111CF9CFEF2FF62F612D5F939B
:1020EA008ADF5F9108954F93AF01FD01DA01AB01D9
:1020FA00BC01CA01402D012C142E4F910895EA0FFC
:10210A00FB1F681F0895E095F0956095EF5FFF4FFC
:10211A006F4F08955F9381DF903871F150E815266B
:10212A0004C05F937ADF903839F1703821F1572F64
:10213A00591B2BF112F4D7DFFACF583118F0AA271E
:10214A00BB278827583028F0AB2FB82F882758503C
:10215A00F9CF552329F08695B795A7955A95D9F7BA
:10216A00502D512572F0CBDF38F46795F795E79536
:10217A00739513F420C0B7DF3EDF5F910895D8F757
:10218A00FBCFEA1BFB0B680B51F010F40094BBDF8A
:10219A00662392F3EE0FFF1F661F7A95CBF7EE27A1
:1021AA00FF27662777275F910895EFEFFFEF6FE725
:1021BA007FEF5F910895EFEFFFEF6FE77FE75F91A2
:1021CA0008955F932ADF703851F3903841F3012460
:1021DA000894791F23F41CF300203AF3ECCF0F92F2
:1021EA001F932F933F934F93112722279927689F75
:1021FA00A0018F9F302D410D591F6B9F300D411D3E
:10220A00591F8E9F27D0BF9F25D06A9F23D0BE9F7C
:10221A001DD0AF9F1BD0AE9F110D291F391F491F1B
:10222A00591FE32FF42F652F522F4F913F912F9172
:10223A001F910F9066232AF0550FEE1FFF1F661F8E
:10224A0002C073954BF2CDDE5F910895100D211DEA
:10225A00391F02C0200D311D491F591F08955F9370
:10226A00DCDE703821F411200AF49FCFA4CF903815
:10227A0009F495CF01240894970B1BF4D4F300209A
:10228A00F3CF792F1F932F933F934F931124112745
:10229A00222733274427552790E2AE17BF07860720
:1022AA00410730F0AE1BBF0B860B410B089401C0EF
:1022BA008894551F221F331F111CAA1FBB1F881F7A
:1022CA00441F9A9551F7F901612D4F913F912F9132
:1022DA001F91662332F0550FEE1FFF1F661F7A9576
:1022EA0043F27FDE5F91089599239AF0772342F0B3
:1022FA00971748F029F4AE17BF07860720F031F088
:10230A0098948894089598940894089518948894B1
:10231A0008957723C2F7971798F3A9F7EA17FB07E7
:10232A00680788F399F3ECCFF195E195F0400895A9
:10233A00F09560957095E195FF4F6F4F7F4F089527
:10234A00EE230E2EEA2F19F0EE0F0A94E9F70895FC
:10235A00EE230E2EEA2F19F0E6950A94E9F708956E
:10236A00EE0FFF1FEE0FFF1F0895F595E795F59500
:10237A00E79508956F2F660F660B762F0895FA9FDB
:10238A00F02DEB9FF00DEA9FE02DF10D08957A9F55
:10239A00702D6B9F700DF89F700DE99F700D6A9FED
:1023AA00602D710DFB9F600D711DE89F600D711D01
:1023BA008827FA9FF02D610D781FEB9FF00D611DA4
:1023CA00781FEA9FE02DF10D681F781F08956E2F80
:1023DA006A9FF0016B9FF00D0895E894F7FF02C021
:1023EA00A3DF6894EA23FB230EF49EDF0895ED91A0
:1023FA00FC9111970895ED93FD936D937C93089545
:10240A00E881F9816A817B810895A881B9818A81ED
:10241A009B810895E883F9836A837B8308959A935D
:10242A008A93BA93AA930895182E862F612D192E8E
:10243A00972F712D1B2EBF2FF12D1A2EAE2FE12DA6
:10244A000895E199FECFFF93FFB7F894AEBBBFBBE7
:10245A00E09AEDB3FFBFFF910895E19B02C0A895F2
:10246A00FCCF9FB7F894AEBBBFBBE09A8DB3E81719
:10247A0019F0EDBBE29AE19A9FBF089500240A166B
:10248A000B0608955A934A933A932A931A930A93F6
:10249A0008955D814C813B812A81198108810895C3
:00000001FF
