:020000000C945E
:10000200FF000C9400000C9400000C9400000C946F
:1000120000000C9400000C9400000C9400000C945E
:1000220000000C9400000C9400000C942C010C9421
:1000320000000C945E010C9400000C9400000C94DF
:1000420000000C9400000C9400000C9400000C942E
:1000520000001027E80364000A00010000100001FC
:10006200100001000000000000000000000000007D
:10007200000000000000000000000000000000007E
:10008200000000000000000000000000000000006E
:10009200000000000000000000000000000000005E
:1000A20000000000000000000000000000000D54ED
:1000B200783A000D52783A204461746120697320C5
:1000C2006120696E746567657220616E64203130EB
:1000D2002A646174613D002564000D004C43442094
:1000E20044656C65746564000D4D6963726F2070C0
:1000F200726F636573736F72204C616220696E2048
:1001020050616E64656D6963206F6620436F726F24
:100112006E612056697275730D000D52783A204552
:100122004E44206F662074686520706172740D0001
:100132000D54783A20000D52783A20696E70757429
:10014200206C65747465722069733A000D467261A1
:100152006D65206D757374206265203520696E743B
:10016200656765720D000D4C656E677468206F6679
:10017200206672616D65206E6F7420636F727265A6
:1001820063740D00094672616D6520697320636FA7
:1001920072726563740D000080C001000200660087
:1001A20006000400680005006001B000240065013B
:1001B200B50002008901DC000C008B01DE00320078
:1001C2009701EA001600C9011C010600DF01320195
:1001D2000200E501DC001600E70138010200FD0122
:1001E200DC001A00FF014E011E0019026801130013
:1001F2003702860102005A029A010000F894EE27A3
:10020200ECBBF1E0FBBFEBBFE5BF8DE0A2E0BB279B
:10021200ED938A95E9F780E094E0A0E6ED930197EB
:10022200E9F7ECE9F1E085919591009761F0A591EC
:10023200B59105901590BF01F00105900D920197BF
:10024200E1F7FB01F0CFEFE5EDBFE4E0EEBFC0E682
:10025200D1E00C949001EA93FA93EFB7EA931A93E0
:100262000A931BB10CB1E12FEC7189F4E52D539483
:10027200F0E0E65BFD4F0083E8E0E51509F4552464
:100282007394E8E0E71519F47724689420F809914B
:10029200199125C01A937720F1F3E42D4394F0E0ED
:1002A200E65BFD4F1081E8E0E41509F44424F8947C
:1002B2007A947894E12F19910895EA93FA93EFB71B
:1002C200EA93882061F08A94E92D9394F0E0EE5A43
:1002D200FD4FE081ECB9E8E0E91509F49924E991D0
:1002E200EFBFF991E9911895AA93E8E0E815E9F3CF
:1002F200F894882011F45D990DC0E62D6394F0E026
:10030200EE5AFD4FA881A083E8E0E61509F46624C1
:10031200839402C0E881ECB978940C94DD02E0E0A9
:10032200EABBEBBBE7BBE8BBE4BBE5BBE1BBE2BBC3
:10033200EBB9E8EDEAB9E6E8E0BDE0E0E0BDE3E311
:10034200E9B9A0E10E94B102789402D0FECFFFCFBA
:10035200EF97239782E4A0E0B0E0EEE6F0E00E949F
:100362001A030E940C0310E020E030E040E050E06D
:100372000E94DF02E8E2E8872F5F3F4F1D3059F00D
:10038200F901DE011896EA0FFB1F10830E94DF02BB
:100392002F5F3F4FF3CFDE011896A20FB31FE9E2A2
:1003A200EC93E0E0EE83EF830E94E502AC91A93288
:1003B20009F452C00E94E502EC91F0E0E033A0E0C3
:1003C200FA0719F440E050E041C0E133A0E0FA0737
:1003D20019F441E050E03AC0E233A0E0FA0719F420
:1003E20042E050E033C0E333A0E0FA0719F443E0FF
:1003F20050E02CC0E433A0E0FA0719F444E050E0E6
:1004020025C0E533A0E0FA0719F445E050E01EC02C
:10041200E633A0E0FA0719F446E050E017C0E733EC
:10042200A0E0FA0719F447E050E010C0E833A0E07A
:10043200FA0719F448E050E009C0E933A0E0FA07EE
:1004420019F449E050E002C044E650E0EE81FF8139
:100452003196EE83FF83A8CF4A30E0E05E0724F0B6
:10046200AFEFB1E016D010C0E6E0F0E0E217F3071C
:1004720021F0A9E1B2E00DD007C0A7E3B2E009D0B4
:10048200DE0118960E94A5020E941303EF96299698
:100492000895BA93AA931A930E94EC0221F0A12F15
:1004A2000E947501F9CFAAE00E94750156C0AA9375
:1004B200E5B3EF70AE2FE881E07FEA2BE5BB8DE07C
:1004C2008A95F1F7AA9A8DE08A95F1F7AA988DE0BC
:1004D2008A95F1F771C0AA93A881E9DFE881E295D4
:1004E200E883A881E4DF85E88A95F1F765C0AA93DD
:1004F200E881F0E0E65AFD4FE081A981AE0FEBDF23
:10050200B980A88022960895A2E00E94F402ACE08D
:10051200E2DFA1E00E94F402E0E0AE2EBE2E0895DA
:10052200AA93A881AA3011F0BD1440F0E0E0EA934A
:10053200A394AA2DDCDFA881AA30F1F1B394A89A82
:10054200A881C9DFA89838C0BA93AA931A930E94C7
:10055200EC0219F0A12FE4DFFACF18812396089557
:10056200AA93E4B3E06FE4BBA29AA09AA19AAA98D4
:10057200A898A998D880E881E058E0935C02E881C5
:10058200E054E0935D02A4E1B0E00E9402030E9405
:10059200FA020E94FA020E94FA02A0E288DF88ECC4
:1005A20090E00197F1F7A8E296DFA4E094DFA5E8D6
:1005B20092DFA6E090DFA8DF219608950E944B010A
:1005C2001E2FA12F0C947501EE81FF81DE0118967A
:1005D200AE0FBF1F0895A981BA81ED91A983BA8395
:1005E2001E2FE03008950E946C02A3E0B0E00C944C
:1005F2000203A0E30E94580288EC90E00197F1F711
:100602000895109639F080ED97E00197F1F7A895DB
:100612001197C9F708955A934A933A932A931A93D2
:100622000A9308955D814C813B812A811981088159
:100632000895AC0FBD1F05900D928A95E1F70895BC
:00000001FF
