:100000000C9462000C948F000C9493000C940000EC
:100010000C9400000C9400000C9400000C94000060
:100020000C9400000C949B000C9400000C940000B5
:100030000C9400000C9400000C9400000C94000040
:100040000C9400000C9400000C9497000C94000099
:100050000C9400001027E80364000A00010000105F
:10006000000110000100000000000000000000007E
:10007000E803256425643A256425643A25642564EB
:100080003A256425640043453A46554C4C200043CC
:10009000453A25642000463A2564000080C00100EE
:1000A0002D4E414E00494E4600000A0004006600F5
:1000B00002006A01700002006C019C0001007301E3
:1000C0009E000000F894EE27ECBBF1E0FBBFEBBF15
:1000D000E5BF8DE0A2E0BB27ED938A95E9F780E0CC
:1000E00094E0A0E6ED930197E9F7EAEAF0E0859164
:1000F0009591009761F0A591B59105901590BF017C
:10010000F00105900D920197E1F7FB01F0CFEFE5CB
:10011000EDBFE4E0EEBFC0E6D1E00C94AC000E947D
:100120005604EAD00BC00E945604A7D007C00E9414
:10013000560431D103C00E94560432D0E991EFBF7A
:10014000F991E991B991A9919991899179916991DF
:10015000F990199009901895E0E0EABBEBBBE7BB7A
:10016000E8BBEFEFE4BBE0E0E5BBE0EFE1BBE0E0E4
:10017000E2BBE5E0E3BFE2EBE2BFE0E0ECBFE1E0E1
:10018000E9BFEBB7E06EEBBFEFE0E5BFE0E4E4BF53
:10019000E0EEEABFA0E10E9466027894FFCFFFCFB5
:1001A0006E97E0EBE2BFA0916601B09167011197F5
:1001B00009F061C0F20131962F010E94640481F4BC
:1001C0000E94690469F40E946E0451F4E5E0F0E0D5
:1001D000EA15FB0529F4E9E0F0E0EC15FD0509F06E
:1001E0000BC00E9473043196E0936001F0936101AB
:1001F0000E947804CC24DD240E94640459F40E94F7
:10020000690441F40E946E0429F4E5E0F0E0EA1587
:10021000FB0509F005C0F60131966F010E947804D4
:100220000E94640431F40E94690419F40E946E046F
:1002300009F009C0F50131965F0166247724442452
:100240005524882499240E94640419F40E946904A6
:1002500009F007C0F40131964F0166247724442445
:1002600055240E94640429F4F30131963F0144248B
:1002700055240E9481046E960895B4990BC0E1E064
:10028000F0E0E0936601F0936701E0E0E09368013D
:10029000E0936901B5990EC0E0E0E0936601E09358
:1002A0006701E0916801F09169013196E09368017E
:1002B000F0936901A0916801B09169011297D9F496
:1002C0006E97442455246624772488249924AA24EC
:1002D000BB24CC24DD24E0E0E0936001E0936101E5
:1002E000E0936601E0936701E0936801E0936901A0
:1002F0000E9481046E9608956E971A930A9300E007
:1003000010E0B3990FC0A0916A01B0916B01A83EB3
:10031000E3E0BE073CF40E94C2043196E0936A0118
:10032000F0936B01B7990EC0A0916A01B0916B0177
:100330000E9436053CF40E94C2043197E0936A01A2
:10034000F0936B010E94C204309779F401E010E051
:100350000E94C704E6E8F0E0FA93EA9380E00E9486
:1003600009042496DE011296A0D0002E012A79F409
:100370000E94C704EFE8F0E0FA93EA930E94C204F7
:100380000E9424050E94D104DE0112968ED01981AC
:100390000881A0960895A297E9B3FF2766277727DB
:1003A000EE8FFF8F68A379A3E0E5EFBDE1E0EEBD3E
:1003B000E0E0EDBDECBDE7BDE6BDEBBDEABDE9BDEE
:1003C000E8BDE8E0EA93A1E031D0FE01FA93EA93B8
:1003D000E6E9F0E0FA93EA93EAA1FBA16CA17DA122
:1003E0000E94D104DE0161D0A2960895AA93E5B3DC
:1003F000EF70AE2FE881E07FEA2BE5BB8DE08A95B8
:10040000F1F7AA9A8DE08A95F1F7AA988DE08A957E
:10041000F1F789C0AA93A881E9DFE881E295E88332
:10042000A881E4DF85E88A95F1F77DC0AA93E88189
:10043000F0E0E459FE4FE081A981AE0FEBDFE981E6
:10044000E0937001E881E093710122960895A2E0A3
:100450000E94D804ACE0DEDFA1E00E94D804E0E016
:10046000E0937101E09370010895AA93A881AA30E6
:1004700031F0E0917201A0917001AE1760F0E0E000
:10048000EA93A0917101AF5FA0937101CFDFA881C2
:10049000AA3009F448C0E0917001EF5FE093700169
:1004A000A89AA881B7DFA8983EC0BA93AA931A93D6
:1004B000A981BA81ED91A983BA831E2FE03019F08A
:1004C000A12FD3DFF5CF188123960895AA93E4B323
:1004D000E06FE4BBA29AA09AA19AAA98A898A998BA
:1004E000E881E0937201E058E0936E01E881E05406
:1004F000E0936F01A4E1B0E00E9412050E94DE04C7
:100500000E94DE040E94DE04A0E270DF88EC90E02E
:100510000197F1F7A8E27EDFA4E07CDFA5E87ADFAF
:10052000A6E078DF94DF21960895BA93AA931A93F0
:100530000A93AA81BB8112960E942905309759F12E
:10054000AA81BB8114960E9429058F01309761F022
:100550000230E0E01E0798F0F80131978F01AA8180
:10056000BB811496ED93FC93AA81BB811296ED9109
:10057000FD913196FE93EE933197AC81A083AA81D1
:10058000BB810E942905FF232AF0ED91FD91319650
:10059000FE93EE9306C0AA81BB81EFEFFFEFED93D0
:1005A000FC931981088125960895BA93AA932697FA
:1005B0000E943A0510E0AC85BD85E0E0F0E0ED93E7
:1005C000FC93EA89FB893196EA8BFB8B3197E491A6
:1005D0002E2FE03009F415C1E12FE03039F4253237
:1005E00011F411E002C00E94E6040AC1E130A9F44E
:1005F000253219F40E94E60402C112E040E000E056
:100600002D3211F401E0FCC02B3211F44BE2F8C0A2
:10061000203211F440E2F4C002C0E23039F450E07C
:1006200013E0203311F40068EBC003C0E33009F09D
:10063000E7C0203310F02A3308F007C0AAE05A9F21
:10064000502DE22FE0535E0FDBC0E22FE33649F47A
:100650000E94ED04E889F989A481AA930E94F30419
:10066000CEC0E33741F40E94ED040E94F9040E94D9
:100670003D041E2F0AC0E03761F40E94ED040E9481
:10068000F9040E9449041E2F086002600F7730E0D1
:1006900034C0E43611F0E93611F4046002C0E537E5
:1006A00031F4E4E5F0E0EE83FF8315E00CC0E835BB
:1006B00011F4086003C0E83709F0A1C0EEE5F0E0EE
:1006C000EE83FF8314E002FF14C00E94ED040E9439
:1006D0000305AB85AA233AF4EA85FB850E94200531
:1006E000EA87FB874DE2403011F01F5F01C00B7FAE
:1006F00004C00E94ED040E94030500FD11C01517FF
:1007000078F407FF08C002FF04C00B7F242F1150AC
:1007100001C020E301C020E20E94E6045150EFCF67
:10072000312F01FF17C03030A1F003FF06C0EE816A
:10073000FF812591EE83FF8305C0AE81BF812D919E
:10074000AE83BF830E94E604503009F0515031500F
:10075000EACF4BC020E3EE81FF810E942D05E887A0
:10076000F987EE81FF813296EE83FF83E885F98574
:10077000AA85BB85AE17BF0750F02F5FA885B98546
:10078000EA85FB85EA1BFB0BEA87FB87EFCF2A3361
:1007900028F003FF02C0295F01C0295D04FD1AC0D3
:1007A000213320F4A885B985119709F409C053179E
:1007B00010F000FF01C013C020E207FF0BC020E3D0
:1007C000006102FF07C00B7F4A930E94F304503080
:1007D00009F051500E94E604503009F05150315058
:1007E000A885B985129708F0B5CF00FF08C0503032
:1007F00031F05150E0E2EA930E94F304F8CF10E0A8
:10080000E0CEAC85BD850E9429050E944105649615
:100810000895FF92F82E26970E943C050E940B0532
:10082000309719F4EFEFFFEF23C0DE0116960E9418
:100830001C058D010E940B05EE83FF83E0E0E88735
:10084000E987DE011A960E941C050E942905FA9389
:10085000EA931A930A93E5E9F2E0FA93EA93DE0148
:100860001A96A3DE9F01AE81BF81E0E0EC93F9010F
:100870000E9443052A96FF900895BA93AA93A991DE
:10088000B991EE27FF276D91662311F03196FBCFCA
:100890000895BA93AA93AA27BB27E991F9910590E5
:1008A000002011F01196FBCFFD0108950A921A92D3
:1008B000FA926A937A938A939A93AA93BA93EA9351
:1008C000FA93EFB7EA930895E9E0F0E0E415F5054F
:1008D0000895E5E0F0E0E615F7050895E9E0F0E0B9
:1008E000E815F9050895E0916001F091610108951E
:1008F000662477244424552488249924AA24BB24DC
:100900000895FE01FA93EA93E2E7F0E0FA93EA939E
:10091000E0916401F09165010E9424050E94310577
:10092000E0916201F09163010E9424050E9431056B
:10093000DADF0E9424050E943105F6010E94240599
:100940000E943105F5010E9424050E943105F40141
:100950000E9424050E943105F3010E9424050E9493
:100960003105F2010E9424050E94310580E20E94B7
:100970000904A496E0E0EA93A0E00E941602DE01DA
:100980000C945502E0916A01F0916B010895E0E04A
:10099000EA93A1E00E941602FE013296FA93EA93CE
:1009A00008950E94310584E00E9409042896089564
:1009B0000E940A02A3E0B0E00C941205A0E30E949A
:1009C000F60188EC90E00197F1F708952A93AD8540
:1009D000BE85EF85F88909950895E889F9893497E6
:1009E000E88BF98B0895AD85BE85EF85F88909956B
:1009F0000895A889B98914960E942905EE83FF837A
:100A0000AE81BF810895A889B98914960E942905ED
:100A1000EA87FB870895DE011C960E941C050E9450
:100A200029050895109639F080ED97E00197F1F7C8
:100A3000A8951197C9F708950024AF0DB01D08952A
:100A4000F195E195F04008956F2F660F660B762FB4
:100A50000895ED91FC91119708950590F491E02D82
:100A600008957A936A93FA93EA93089500240A16F4
:100A70000B0608955A934A933A932A931A930A932A
:100A800008955D814C813B812A81198108810895F7
:00000001FF
