:0C0000000C9457000C9400000C940000BD
:10000C000C9400000C9400000C9400000C94000064
:10001C000C9400000C9400000C9400000C94000054
:10002C000C9400000C9400000C9400000C948400C0
:10003C000C9400000C9400000C9400000C94000034
:10004C000C9400000C9400001027E80364000A00D4
:10005C000100001000011000010000000000000071
:10006C000000000000000000000000000000000084
:10007C000000000000000000000000000000000074
:10008C0000002564000001002D4E414E00494E46F3
:10009C00000080C001006901920002006D019E0009
:1000AC000000F894EE27ECBBF1E0FBBFEBBFE5BF23
:1000BC008DE0A2E0BB27ED938A95E9F780E094E010
:1000CC00A0E6ED930197E9F7E0EAF0E085919591D0
:1000DC00009761F0A591B59105901590BF01F001C5
:1000EC0005900D920197E1F7FB01F0CFEFE5EDBF25
:1000FC00E4E0EEBFC0E6D1E00C94AA008A93AA9388
:10010C00BA93EA93EFB7EA93A0916801B0E0A05AD2
:10011C00BE4FE5B1EC93A0916801AF5FA09368016D
:10012C00A83018F0E0E0E0936801E0916801E05A33
:10013C00E7B98BE18A95F1F7369AE991EFBFE9912E
:10014C00B991A99189911895E0E0EABBEBBBEFEF6F
:10015C00E7BBE0E0E8BBE4BBE5BBE1BBE2BBE0E650
:10016C00E7B9EBEEE6B9E0E0E0BFA0E10E948D0359
:10017C00789403D089D0FDCFFFCFA89788E2A0E078
:10018C00B0E0E6E6F0E00E94BF040E94B10400E09B
:10019C0010E020E030E040E050E00830E0E01E07E6
:1001AC000CF06EC0E42FEE0FEE0FEA93A22F0E941C
:1001BC004E03DE019696A00FB11F0C9011240E94E5
:1001CC00BB030E9491040F010E94BB03AE1BBF0B2B
:1001DC000E942403EE83FF83FE013896FA93EA9380
:1001EC00E0E0EA93DE011B960E940B03DF010E9404
:1001FC00FB02EE81FF810E9479040E941B04DF0147
:10020C00CB01EDECFCEC6CE47DE30E94490438F18D
:10021C00F801DE019696EA0FFB1F0F01A0E6B1E094
:10022C00A00FB11FEC91D001EC93FE013896FA931C
:10023C00EA93EEE8F0E0FA93EA93DE019A96A00FC7
:10024C00B11FEC91FF27662777270E94AC0484E04E
:10025C000E94C7022896DE0118960E947C034F5F0D
:10026C005F4FE3E0F0E0E017F10721F421E030E02C
:10027C0040E050E0E0E0EE83EF830F5F1F4F8DCF47
:10028C000E94B804AE960895E2E6E3BFE0E0E2BF58
:10029C00E0916001ECBFE0E0E9BF0895BA93AA9346
:1002AC001A930A93AA81BB8112960E94A4043097D8
:1002BC0059F1AA81BB8114960E94A4048F01309736
:1002CC0061F00230E0E01E0798F0F80131978F01E1
:1002DC00AA81BB811496ED93FC93AA81BB811296E3
:1002EC00ED91FD913196FE93EE933197AC81A08305
:1002FC00AA81BB810E94A404FF232AF0ED91FD91F9
:10030C003196FE93EE9306C0AA81BB81EFEFFFEF0F
:10031C00ED93FC931981088176C1BA93AA93269721
:10032C000E94B10410E0AC85BD85E0E0F0E0ED93F7
:10033C00FC93EA89FB893196EA8BFB8B3197E4912C
:10034C002E2FE03009F415C1E12FE03039F42532BD
:10035C0011F411E002C00E94C3030AC1E130A9F4F8
:10036C00253219F40E94C30302C112E040E000E000
:10037C002D3211F401E0FCC02B3211F44BE2F8C029
:10038C00203211F440E2F4C002C0E23039F450E003
:10039C0013E0203311F40068EBC003C0E33009F024
:1003AC00E7C0203310F02A3308F007C0AAE05A9FA8
:1003BC00502DE22FE0535E0FDBC0E22FE33649F401
:1003CC000E94CA03E889F989A481AA930E94D003E8
:1003DC00CEC0E33741F40E94CA030E94D6030E94A8
:1003EC000B031E2F0AC0E03761F40E94CA030E945F
:1003FC00D6030E9417031E2F086002600F7730E0AF
:10040C0034C0E43611F0E93611F4046002C0E5376B
:10041C0031F4E4E5F0E0EE83FF8315E00CC0E83541
:10042C0011F4086003C0E83709F0A1C0EEE5F0E074
:10043C00EE83FF8314E002FF14C00E94CA030E94E3
:10044C00E003AB85AA233AF4EA85FB850E946D0490
:10045C00EA87FB874DE2403011F01F5F01C00B7F34
:10046C0004C00E94CA030E94E00300FD11C01517CE
:10047C0078F407FF08C002FF04C00B7F242F115033
:10048C0001C020E301C020E20E94C3035150EFCF12
:10049C00312F01FF17C03030A1F003FF06C0EE81F1
:1004AC00FF812591EE83FF8305C0AE81BF812D9125
:1004BC00AE83BF830E94C303503009F051503150BA
:1004CC00EACF4BC020E3EE81FF810E94A804E887AD
:1004DC00F987EE81FF813296EE83FF83E885F985FB
:1004EC00AA85BB85AE17BF0750F02F5FA885B985CD
:1004FC00EA85FB85EA1BFB0BEA87FB87EFCF2A33E8
:10050C0028F003FF02C0295F01C0295D04FD1AC059
:10051C00213320F4A885B985119709F409C0531724
:10052C0010F000FF01C013C020E207FF0BC020E356
:10053C00006102FF07C00B7F4A930E94D00350302A
:10054C0009F051500E94C303503009F05150315002
:10055C00A885B985129708F0B5CF00FF08C05030B8
:10056C0031F05150E0E2EA930E94D003F8CF10E052
:10057C00E0CEAC85BD850E94A4040E94B8046496AC
:10058C000895FF92F82E26970E94B3040E94E80368
:10059C00309719F4EFEFFFEF23C0DE0116960E949F
:1005AC0069048D010E94E803EE83FF83E0E0E88795
:1005BC00E987DE011A960E9469040E94A404FA934A
:1005CC00EA931A930A93E4E5F1E0FA93EA93DE01D5
:1005DC001A96A3DE9F01AE81BF81E0E0EC93F90196
:1005EC000E94BA042A96FF900895BA93AA93B981EF
:1005FC00A881109631F0FC81EB816A81619311978F
:10060C00E9F7EB81FC8125960895BA93AA93A991F9
:10061C00B991EE27FF276D91662311F03196FBCF30
:10062C000895BA93AA93AA27BB27E991F99105904B
:10063C00002011F01196FBCFFD010895BA93AA93F7
:10064C00E991F99130971AF4E095F0953196089567
:10065C00AA93E5B3EF70AE2FE881E07FEA2BE5BB00
:10066C008DE08A95F1F7AA9A8DE08A95F1F7AA9810
:10067C008DE08A95F1F777C0AA93A881E9DFE8812C
:10068C00E295E883A881E4DF85E88A95F1F76BC0F1
:10069C00AA93E881F0E0E359FE4FE081A981AE0F07
:1006AC00EBDF5980488022960895A2E00E94EF0368
:1006BC00ACE0E2DFA1E00E94EF03E0E04E2E5E2E04
:1006CC000895AA93A881AA3011F0571448F0E0E0DD
:1006DC00EA934394A42DDCDFA881AA3009F443C02B
:1006EC005394A89AA881C8DFA8983DC0BA93AA933E
:1006FC001A93A981BA81ED91A983BA831E2FE03098
:10070C0019F0A12FDEDFF5CF188123960895AA9357
:10071C00E4B3E06FE4BBA29AA09AA19AAA98A89815
:10072C00A9987880E881E058E0936F01E881E05463
:10073C00E0937001A4E1B0E00E94FD030E94F50378
:10074C000E94F5030E94F503A0E282DF88EC90E0A2
:10075C000197F1F7A8E290DFA4E08EDFA5E88CDF2B
:10076C00A6E08ADFA2DF21960895A0E6B1E0A00FF3
:10077C00B11FEC91F0E0D00108952A93AD85BE85B0
:10078C00EF85F88909950895E889F9893497E88BFC
:10079C00F98B0895AD85BE85EF85F8890995089587
:1007AC00A889B98914960E94A404EE83FF83AE81B4
:1007BC00BF810895A889B98914960E94A404EA8778
:1007CC00FB870895DE011C960E9469040E94A40414
:1007DC0008950E944203A3E0B0E00C94FD03A0E353
:1007EC000E942E0388EC90E00197F1F70895109683
:1007FC0039F080ED97E00197F1F7A8951197C9F7BB
:10080C00089550E8572711F45F932BC05F3F31F0E8
:10081C00660F000C57956795752F08955F93002010
:10082C000AF02BC024C0689401C0E8943097604053
:10083C007040B1F0002426F0772312F400944BD0D2
:10084C00172E7EE1112032F07A95EE0FFF1F661FF6
:10085C00111CF9CFEF2FF62F612D5F93D2DF5F9133
:10086C000895EE27FF27662777275F910895EFEF0E
:10087C00FFEF6FE77FEF5F910895EFEFFFEF6FE70B
:10088C007FE75F91089599239AF0772342F09717A9
:10089C0048F029F4AE17BF07860720F031F0989482
:1008AC0088940895989408940895189488940895B9
:1008BC007723C2F7971798F3A9F7EA17FB0768078E
:1008CC0088F399F3ECCF0024AF0DB01D0895F1958A
:1008DC00E195F0400895F09560957095E195FF4F86
:1008EC006F4F7F4F08956F2F660F660B762F08950D
:1008FC000024112490E1AA0FBB1F001C111C0E1A1E
:10090C001F0A18F40E0E1F1E01C0A1609A9599F7CC
:10091C00FD01D001089504D0EBDF0EF4D8DF08956B
:10092C00E894F7FF02C0D3DF6894B7FF06C0A09528
:10093C00B095119600F8039400FA0895ED91FC918E
:10094C00119708950590F491E02D08957A936A9388
:10095C00FA93EA9308955A934A933A932A931A93E3
:10096C000A9308955D814C813B812A81198108810C
:10097C000895AC0FBD1F05900D928A95E1F708956F
:00000001FF
