:080000000C9433000C94000085
:100008000C9400000C9400000C9400000C94000068
:100018000C9400000C9400000C9400000C94000058
:100028000C9400000C9400000C9400000C94000048
:100038000C9400000C9400000C9400000C94000038
:100048000C9400000C9400000C9400003F065B4FD9
:10005800666D7D077F6F0A00600154000000F89408
:10006800EE27ECBBF1E0FBBFEBBFE5BF8DE0A2E004
:10007800BB27ED938A95E9F780E094E0A0E6ED933D
:100088000197E9F7EEE5F0E085919591009761F029
:10009800A591B59105901590BF01F00105900D92BD
:1000A8000197E1F7FB01F0CFEFE5EDBFE4E0EEBF2C
:1000B800C0E6D1E00C946000E0E0EABBEBBBEFEFF8
:1000C800E7BBE0E0E8BBEFEFE4BBE0E0E5BBEFE077
:1000D800E1BBE0EFE2BBE5E0F0E0FA93EA93A4EFDE
:1000E800B1E04CD06BD0E1E1F0E0FA93EA93E3E0C1
:1000F800F0E05FD171D0F6CFFFCFBA93AA931A93ED
:100108000A93EA81FB81E130A0E0FA0711F409B310
:100118000FC0E230A0E0FA0751F0E330A0E0FA07A0
:1001280011F403B305C0E430A0E0FA0711F406B3F4
:100138001127F801198108811FC0BA93AA93E88191
:10014800F981E130A0E0FA0719F4EA81EBBB14C0A9
:10015800E230A0E0FA0719F4EA81E8BB0DC0E33009
:10016800A0E0FA0719F4EA81E5BB06C0E430A0E094
:10017800FA0711F4EA81E2BB24960895BA93AA9388
:100188001A930A9300E010E0EC81FD810E171F0717
:100198008CF4AA81BB810E949C02EFEFF0E00ED1A3
:1001A800AA81BB810E949C02E0E0F0E007D10F5FCA
:1001B8001F4FEACF19810881269608951A930A934A
:1001C800A1E0B0E09ADF8F011A930A93A2E0B0E0B1
:1001D800B4DF099119910895BA93AA932297E0E0A0
:1001E800E883E9830E94DE0200E010E020E030E0CE
:1001F80040E050E0E8D00E94C2028F01E4D0E8D08D
:100208000E94C2029F01DFD0E3D00E94C202AF0168
:10021800DAD0DED00E94C202EE83FF83E885F9853A
:10022800E130A0E0FA0791F5EA85FB85E230A0E02D
:10023800FA0761F4D2D0C2D0D8D0DBD0BFD0D5D0A5
:10024800E1D0BCD0D2D0E7D0A2E01CC0E330A0E01F
:10025800FA0749F4C2D0EAD0CCD0E8D0D3D0E6D05F
:10026800DAD0A3E00FC0E430A0E0FA0771F4B5D00B
:10027800A0D0E2D0BED09DD0DFD0C4D09AD0DCD000
:10028800CAD0A4E0B0E0D8D0DB9A8FC0E230A0E0BA
:10029800FA0759F5D3D049F4D7D0DED0E2D0DCD074
:1002A800E9D0DAD0F0D0A1E01CC0E330A0E0FA0732
:1002B80049F4CAD0BBD0D5D0B9D0DCD0B7D0E3D0C0
:1002C800A3E00FC0E430A0E0FA0771F4BDD071D00C
:1002D800B3D0C7D06ED0B0D0CDD06BD0ADD0D3D046
:1002E800A4E0B0E0A9D0C39A60C0E330A0E0FA0768
:1002F80071F5A4D049F4D2D0AFD0D8D0ADD0DFD0EA
:10030800ABD0E6D0A1E01FC0E230A0E0FA0761F46C
:10031800C5D054D06AD0CAD051D067D0D0D04ED032
:1003280064D0D6D0A2E00FC0E430A0E0FA0771F4A0
:10033800B5D03FD081D0BAD03CD07ED0C0D039D053
:100348007BD0C6D0A4E0B0E077D0AB9A2EC0E43022
:10035800A0E0FA0751F572D049F4C5D07DD0CBD0D2
:100368007BD0D2D079D0D9D0A1E01CC0E230A0E0B7
:10037800FA0761F4B8D022D038D0BDD01FD035D01C
:10038800C3D01CD032D0C9D0A2E00CC0E330A0E06A
:10039800FA0759F4A8D04AD0AED048D0B5D046D044
:1003A800BCD0A3E0B0E048D0939A0E94E5022E9614
:1003B8000895FA93EA93A4E0B0E00895FA93EA93D3
:1003C800A2E0B0E0BACEAC85BD85EAE0F0E00895E1
:1003D8000E94BD02EC87FD87F6CFD898EE81FF8199
:1003E800E05AFE4FE081F0E00895AAE0B0E00C94F6
:1003F8009C02D89AD998A0E6B1E0A40FB51FEC9159
:10040800F0E00895D99ADA98A0E6B1E0A20FB31FF8
:10041800EC91F0E00895DA9ADB98A0E6B1E0A00F3D
:10042800B11FEC91F0E0FA93EA930895FA93EA93F6
:10043800A3E0B0E082DED9CF80DED7CFEA85FB85A6
:10044800E130A0E0FA070895C098EE81FF81E05AF4
:10045800FE4FE081F0E00895FA93EA93A1E0B0E05E
:10046800EBCFC09AC198A0E6B1E0A40FB51FEC91FC
:10047800F0E00895C19AC298A0E6B1E0A20FB31FB8
:10048800EC91F0E00895C29AC398A0E6B1E0A00FFD
:10049800B11FEC91F0E0FA93EA930895A898EE81E1
:1004A800FF81E05AFE4FE081F0E00895A89AA998EC
:1004B800A0E6B1E0A40FB51FEC91F0E00895A99A69
:1004C800AA98A0E6B1E0A20FB31FEC91F0E008955E
:1004D800AA9AAB98A0E6B1E0A00FB11FEC91F0E0AA
:1004E800FA93EA9308959098EE81FF81E05AFE4FBF
:1004F800E081F0E00895909A9198A0E6B1E0A40F09
:10050800B51FEC91F0E00895919A9298A0E6B1E0B9
:10051800A20FB31FEC91F0E00895929A9398A0E689
:10052800B1E0A00FB11FEC91F0E0FA93EA930895BF
:10053800109639F080ED97E00197F1F7A89511979B
:10054800C9F70895F195E195F04008950024112424
:1005580090E1AA0FBB1F001C111C0E1A1F0A18F4E9
:100568000E0E1F1E01C0A1609A9599F7FD01D001DA
:10057800089512D0EBDF0EF4E5DF0895E894B7FF95
:1005880004C0A095B09511966894F7FDDBDFDEDF17
:10059800FD010EF4D7DF0895E894F7FF02C0D2DF1B
:1005A8006894B7FF06C0A095B095119600F803941B
:1005B80000FA08955A934A933A932A931A930A93FE
:1005C80008955D814C813B812A81198108810895B4
:00000001FF
